:100000000C946D000C94ED160C9414170C94950040
:100010000C9495000C9495000C9495000C9495000C
:100020000C9495000C9495000C9495000C94561724
:100030000C9495000C9432160C9464160C94950054
:100040000C9495000C9495000C9495000C949500DC
:100050000C94950000000002000000000000000069
:100060000504000700000000000000000000000080
:100070000000000001020408102040800102040872
:100080001020408001020408102040800102040872
:100090001020408002020202020202020404040450
:1000A0000404040403030303030303030101010124
:1000B000010101010000390036003300300000006A
:1000C0003B0038003500320000003A0037003400B1
:1000D0003100F702300C9416790411241FBECFE5CD
:1000E000D8E0DEBFCDBF12E0A0E6B0E0ECE6F4E37E
:1000F00002C005900D92AA3AB107D9F726E0AAEA04
:10010000B2E001C01D92AA34B207E1F710E0CCE6DC
:10011000D0E004C02197FE010E94F918C936D1072A
:10012000C9F70E9443170C94291A0C9400000895F3
:100130000895089508950895089586E890E0089533
:100140000895CF93DF93CDB7DEB72A970FB6F89413
:10015000DEBF0FBECDBF2E833F83488759876A8796
:1001600025E0FE013696DE01119601900D922A954A
:10017000E1F728853985232BA1F0DC01ED91FC9175
:10018000028CF38DE02D29813A814B815C816D8158
:100190002A960FB6F894DEBF0FBECDBFDF91CF9188
:1001A00009942A960FB6F894DEBF0FBECDBFDF913B
:1001B000CF910895683F38F0DC01ED91FC91048CFB
:1001C000F58DE02D09940895FC01EE55FF4F408117
:1001D00051816281738126E0FC01828993890C94AC
:1001E000D91508970C94E40006960C94CC04242F9F
:1001F000287F203F59F4403F49F06F77DC01ED91B3
:10020000FC91008CF18DE02D5F7709940895CF93D8
:10021000DF93EC0106960E94D20482309105A1F48E
:100220005D857E8550FF1EC0472F4F7056956F85A8
:100230006F7772957F70406980915005909151055C
:10024000DF91CF910C94E609019761F45D857E857D
:1002500050FF08C0472F4F70569572957F704068C9
:100260006FE7EACFDF91CF910895CF93DF93FC0141
:1002700082EB90E091838083309781F08091AE0291
:100280009091AF0222813381A481B581E817F907EB
:1002900041F02115310529F4109729F4DF91CF9110
:1002A0000895109721F013963C932E931297209166
:1002B000B0023091B102E217F30721F4B093B1021A
:1002C000A093B002C281D381209711F0BD83AC838B
:1002D000E817F90719F7D093AF02C093AE02DECF4B
:1002E000CF93DF93EC010E94350166E070E0CE0110
:1002F000DF91CF910C945417CF93DF93FC018AEBDD
:1003000090E091838083309781F08091AA02909150
:10031000AB0222813381A481B581E817F90741F04E
:100320002115310529F4109729F4DF91CF91089513
:10033000109721F013963C932E9312972091AC02C4
:100340003091AD02E217F30721F4B093AD02A09310
:10035000AC02C281D381209711F0BD83AC83E81732
:10036000F90719F7D093AB02C093AA02DECFCF935F
:10037000DF93EC010E947C0166E070E0CE01DF912A
:10038000CF910C94541722EC30E0FC013183208390
:100390000C947C01CF93DF93EC010E94C30160E1D8
:1003A00070E0CE01DF91CF910C9454172AED30E02C
:1003B000FC01318320830C94C301CF93DF93EC01C4
:1003C0000E94D60160E170E0CE01DF91CF910C94E4
:1003D000541720E8240F203748F46F77DC01ED91A3
:1003E000FC910688F789E02D5F7709940895EF92D4
:1003F000FF921F93CF93DF93EC017A01122F1B82A0
:100400001A821D821C828AEB90E0998388838091F6
:10041000AA029091AB02892B21F4D093AB02C09336
:10042000AA02E091AC02F091AD02FD83EC8330971B
:1004300011F0D383C283D093AD02C093AC021B8270
:100440001A828EEC90E099838883CE0106960E94F2
:10045000C004FE86ED861F878AED90E0998388832D
:10046000DF91CF911F91FF90EF9008952FE432E03C
:10047000FC013183208325E732E03583248323E8A0
:1004800032E0318720872FE832E0378726870C94C7
:10049000490C0E970C94360208970C943602049778
:1004A0000C94360226EE30E0FC01318320832CE0F0
:1004B00031E0358324832AE131E03187208726E249
:1004C00031E0378726870C9436020E970C9452023F
:1004D00004970C94520208970C945202CF93DF9326
:1004E000EC010E94520266EA70E0CE01DF91CF91EA
:1004F0000C94541704970C946E0208970C946E0297
:100500000E970C946E0222E331E0FC0131832083CC
:1005100028E531E03583248326E631E031872087E2
:1005200022E731E0378726870C9452020E970C940D
:10053000830208970C94830204970C948302CF9350
:10054000DF93EC010E94830266EA70E0CE01DF9146
:10055000CF910C9454170E970C949F0208970C940B
:100560009F0204970C949F02CF93DF93EC010E94AB
:10057000360262EA70E0CE01DF91CF910C945417FD
:100580000E970C94B40208970C94B40204970C9440
:10059000B40280915005909151050E94890A809182
:1005A0007A0090917B00892B11F00E94930481E0E6
:1005B00090E090937B0080937A0066E670E086E896
:1005C00094E00E942C0F66E670E082E894E00E94BE
:1005D0000B0F82E894E00C94E40080915005909118
:1005E00051050E94E10B82E894E00C947D13109277
:1005F00085041092840410928904109288048091DA
:10060000AE029091AF02892B31F48AE894E0909386
:10061000AF028093AE02E091B002F091B102F0938C
:100620008F04E0938E04309721F08AE894E093835E
:1006300082838AE894E09093B1028093B002109292
:100640008D0410928C04109293041092920480EA0C
:1006500095E0909395048093940480917A01109290
:100660009604109297041092980480939904109223
:100670009A0480919B04807F80939B0410921D05B7
:1006800010921C0510921E0581E080931F051092A8
:10069000200510922105109222058FEF80932305EB
:1006A00082E19AE7A0E0B0E08093240590932505CD
:1006B000A0932605B093270582E391E090938304ED
:1006C0008093820488E591E0909387048093860468
:1006D00086E691E090938B0480938A0482E791E010
:1006E00090939104809390042FE749E451E068E1EE
:1006F00070E082EB92E00E94F7012FE74BE451E0BB
:1007000069E170E082EC92E00E94F7012FE74DE48E
:1007100051E06AE170E082ED92E00E94F7012FE77C
:100720004FE451E06BE170E082EE92E00E94F7014D
:100730002FE741E551E06CE170E082EF92E00E942A
:10074000F7012FE743E551E06DE170E082E093E0CF
:100750000E94F7012FE745E551E06EE170E082E18C
:1007600093E00E94F7012FE747E551E06FE170E069
:1007700082E293E00E94F7012FE749E551E070E043
:1007800060E082E393E00E94F7012FE74BE551E040
:1007900061E070E082E493E00E94F7012FE74DE50D
:1007A00051E062E070E082E593E00E94F7012FE7FC
:1007B0004FE551E063E070E082E693E00E94F701CC
:1007C0002FE741E651E064E070E082E793E00E94A9
:1007D000F7012FE743E651E065E070E082E893E03F
:1007E0000E94F7012FE745E651E066E070E082E9FC
:1007F00093E00E94F7012FE747E651E067E070E0E1
:1008000082EA93E00E94F7012FE749E651E060E1B8
:1008100070E082EB93E00E94F7012FE74BE651E096
:1008200061E170E082EC93E00E94F7012FE74DE672
:1008300051E062E170E082ED93E00E94F7012FE762
:100840004FE651E063E170E082EE93E00E94F70131
:100850002FE741E751E064E170E082EF93E00E940E
:10086000F7012FE743E751E065E170E082E094E0B3
:100870000E94F7012FE745E751E066E170E082E171
:1008800094E00E94F7012FE747E751E067E170E04D
:1008900082E294E00E94F7012FE749E751E06BE024
:1008A00070E082E394E00E94F7012FE74BE751E00C
:1008B0006FE070E082E494E00E94F7012FE74DE7DB
:1008C00051E06CE070E082E594E00E94F7012FE7D0
:1008D0004FE751E06DE070E082E694E00E94F7019E
:1008E0002FE741E851E06EE070E082E794E00C947D
:1008F000F701CF93DF93C2E8D4E06097E881F981F4
:100900000190F081E02DCE01099582E0C23BD8072D
:10091000A1F786E690E00E94D80F82E894E0DF918C
:10092000CF910C94830261E080E00E94431861E063
:1009300080E00E947F1862E370E080E090E00E9417
:10094000D21760E080E00E947F1862E370E080E0F0
:1009500090E00E94D21761E080E00E947F1862E37D
:1009600070E080E090E00E94D21760E080E00E949A
:100970007F1862E573E080E090E00E94D217D7CF45
:10098000FC017183608382818F608F7E82831382FA
:10099000148215821682089562E0FC0180819181A3
:1009A0000C94BC058F929F92AF92BF92CF92DF9230
:1009B000EF92FF921F93CF93DF93EC01888199818F
:1009C0000E94F5059A819295917011E0981301C0EB
:1009D00010E00E94A017AB01BC018A8182FF1DC0FC
:1009E0008B819C81AD81BE814A015B01881A990A85
:1009F000AA0ABB0A91E0C0907C00D0907D00E090F4
:100A00007E00F0907F00C814D904EA04FB0408F4C7
:100A100090E08A8190FB82F98A839A81892F817084
:100A200092FD25C0912F880F892B282F23709A8142
:100A30009C7F922B9A8393FB222720F9211741F068
:100A4000946010FB93F99A834B835C836D837E8360
:100A5000082E000C990BDF91CF911F91FF90EF9022
:100A6000DF90CF90BF90AF909F908F900895982F78
:100A7000DACFCF93DF93C0912805D0912905209735
:100A800059F0E881F981008CF18DE02DCE010995B6
:100A90000A80DB81C02DF3CFDF91CF910895CF93F2
:100AA000DF93C0912805D0912905209759F0E8815E
:100AB000F981028CF38DE02DCE0109950A80DB814E
:100AC000C02DF3CFDF91CF910895CF93DF93C091E5
:100AD0002805D0912905209759F0E881F981048CE7
:100AE000F58DE02DCE0109950A80DB81C02DF3CF75
:100AF000DF91CF910895FC01828593850895FC01D3
:100B000080859185089588E295E00895EF92FF929F
:100B10000F931F93CF93DF938C010E948305FC01F9
:100B2000C081D1812097B9F0CE010E947F050817BE
:100B3000190788F0CE010E947B057C01CE010E943E
:100B40007F050817190718F00E151F0530F00A80E9
:100B5000DB81C02DE7CFD0E0C0E0CE01DF91CF91A7
:100B60001F910F91FF90EF9008950E9486050097C6
:100B700011F40E9493040895CF92DF92EF92FF92B6
:100B80001F93CF93DF93811520E8920731F18832CC
:100B9000910548F4DF91CF911F91FF90EF90DF9086
:100BA000CF900C944318162FEC010E94B5057C01E0
:100BB000DC01ED91FC91C480D5800E947F05BE01CF
:100BC000681B790B412FC701F601DF91CF911F916F
:100BD000FF90EF90DF90CF900994DF91CF911F911C
:100BE000FF90EF90DF90CF900895EF92FF920F93D8
:100BF0001F93CF93DF93811520E8920719F1EC0141
:100C00008832910548F40E94AD18DF91CF911F9171
:100C10000F91FF90EF9008950E94B5058C01DC01C3
:100C2000ED91FC91E484F5840E947F05BE01681B70
:100C3000790BC801F701DF91CF911F910F91FF90C0
:100C4000EF90099480E0E1CFDC015496ED91FC91A6
:100C5000309719F0CB01BA0109940895DC0156963A
:100C6000ED91FC91309711F0CB01099408950F9309
:100C70001F93CF93DF93CDB7DEB72A970FB6F894C3
:100C8000DEBF0FBECDBF2E833F83488759876A875B
:100C9000DC015296ED91FC91309709F04AC085E055
:100CA000FE013696DE01119601900D928A95E1F7CC
:100CB00000913005109131050115110509F442C06C
:100CC000D801ED91FC910284F385E02D29813A81D0
:100CD0004B815C816D81C8010995882309F447C067
:100CE000D8011496ED91FC911597309759F18481B4
:100CF000958112962D913C91009779F1DC01139624
:100D00001C930E9312973383228315830483D80197
:100D10001396FC93EE93129715969C938E931497CB
:100D200021153105F9F0D9011596FC93EE9314972E
:100D300009C04E815F81688579858A8509958823F8
:100D400009F4ADCF2A960FB6F894DEBF0FBECDBF23
:100D5000DF91CF911F910F9108951093310500936A
:100D60003005D1CFF0933305E0933205EBCFF80196
:100D700002811381A1CFEF92FF920F931F93CF9324
:100D8000DF938A01F62EE72EDC015096ED91FC915F
:100D90003097C1F4802F807F803B09F045C0193720
:100DA00079F5C0914005D09141052097C1F0E881C7
:100DB000F9810680F781E02DCE0109950A80DB815B
:100DC000C02DF3CFBA018F2D9E2D0995882311F3E5
:100DD000DF91CF911F910F91FF90EF900895C091F7
:100DE0003805D0913905209799F3E881F98106807B
:100DF000F781E02DCE0109950A80DB81C02DF3CF6C
:100E00001B3709F0D9C0C0914805D09149052097FA
:100E1000F9F2E881F9810680F781E02DCE0109958C
:100E20000A80DB81C02DF3CF813BE8F5803929F0C2
:100E3000803A09F484C0803859F6C0914805D091B1
:100E40004905209729F2E881F9810284F385E02D94
:100E5000A8016F2D7E2DCE010995882309F46BC062
:100E6000EC81FD81309709F4B3CF848195812A818B
:100E70003B81009709F455C0DC011396DC93CE93B7
:100E8000129733832283D583C483FB83EA839D83B4
:100E90008C832115310509F449C0D9011596FC93BD
:100EA000EE93149795CF803D09F4CCC0803E09F4B1
:100EB00006C1803C09F08CCFC0913C05D0913D0526
:100EC000209709F485CFE881F9810284F385E02D2C
:100ED000A8016F2D7E2DCE010995882309F4AEC09F
:100EE000EC81FD81309709F473CF848195812A814B
:100EF0003B81009709F49DC0DC011396DC93CE93EF
:100F0000129733832283D583C483FB83EA839D8333
:100F10008C832115310509F6F0933F05E0933E05DA
:100F200057CFD0934905C0934805ABCFF0934B05FD
:100F3000E0934A054DCF0A80DB81C02D82CFC0915E
:100F40004405D0914505209709F442CFE881F98105
:100F50000284F385E02DA8016F2D7E2DCE01099529
:100F6000882331F1EC81FD81309709F431CF848100
:100F700095812A813B810097B1F0DC011396DC93C7
:100F8000CE93129733832283D583C483FB83EA8372
:100F90009D838C832115310509F07FCFF0934705A0
:100FA000E093460515CFD0934505C0934405EACF9D
:100FB0000A80DB81C02DC7CFC0914005D09141058B
:100FC000209709F405CFE881F9810284F385E02DAB
:100FD000A8016F2D7E2DCE010995882331F1EC817A
:100FE000FD81309709F4F4CE848195812A813B817B
:100FF0000097B1F0DC011396DC93CE931297338304
:101000002283D583C483FB83EA839D838C8321154C
:10101000310509F042CFF0934305E0934205D8CE65
:10102000D0934105C0934005EACF0A80DB81C02DF3
:10103000C7CFD0933D05C0933C0563CF0A80DB81C9
:10104000C02D3ECFC0913805D0913905209709F4C5
:10105000BFCEE881F9810284F385E02DA8016F2DD0
:101060007E2DCE010995882331F1EC81FD813097E9
:1010700009F4AECE848195812A813B810097B1F03D
:10108000DC011396DC93CE93129733832283D583AE
:10109000C483FB83EA839D838C832115310509F08A
:1010A000FCCEF0933B05E0933A0592CED093390500
:1010B000C0933805EACF0A80DB81C02DC7CFC0912D
:1010C0003405D0913505209709F482CEE881F98165
:1010D0000284F385E02DA8016F2D7E2DCE010995A8
:1010E000882331F1EC81FD81309709F471CE848140
:1010F00095812A813B810097B1F0DC011396DC9346
:10110000CE93129733832283D583C483FB83EA83F0
:101110009D838C832115310509F0BFCEF0933705EF
:10112000E093360555CED0933505C0933405EACF0C
:101130000A80DB81C02DC7CFCF93DF93EC018EE80F
:1011400090E09983888384EA90E09D838C83CE012C
:1011500004960E94C50FCE01DF91CF910C94AB0F86
:1011600004970C949C08CF93DF93EC018FE791E0F8
:101170009983888385E991E09D838C83CE018C9649
:101180000E94D80FCE0148960E94D80FCE01DF9161
:10119000CF910C949C0804970C94B3088AE595E0D1
:1011A0000C94B308CF93DF93EC010E94B30860E482
:1011B00070E0CE01DF91CF910C94541704970C94FA
:1011C000D208CF93DF93EC010E949C0868E070E0A6
:1011D000CE01DF91CF910C94541704970C94E10841
:1011E0000F931F93809152058111B1C010925D053C
:1011F00010925C0510926105109260058FE791E0F6
:1012000090935B0580935A0585E991E090935F0583
:1012100080935E058AE191E4A0E0B0E080936205EE
:1012200090936305A0936405B093650510926605DD
:101230001092670510926805109269050E94AC171C
:101240000091620510916305209164053091650558
:10125000601B710B820B930B60936605709367059F
:10126000809368059093690510926B0510926A054A
:1012700010926D0510926C0510926F0510926E051C
:1012800010927105109270051092750510927405F8
:1012900010927905109278052DE132E030937305B4
:1012A0002093720581E492E0909377058093760510
:1012B00010927B0510927A0510927D0510927C05A4
:1012C00048E755E050937F0540937E0544E755E09D
:1012D00050938105409380051092830510928205FA
:1012E0001092850510928405109289051092880548
:1012F00010928D0510928C053093870520938605FA
:1013000090938B0580938A0510928F0510928E051D
:1013100010929105109290058CE895E090939305BA
:101320008093920588E895E09093950580939405C5
:1013300010929705109296051092990510929805B3
:1013400081E0809352058EEC98E00E943F178AE579
:1013500095E01F910F910895EF92FF920F931F93C5
:10136000CF93DF93EC018E819F81892B69F58A8170
:101370009B81892B49F50E94390C8C01892B11F432
:101380000E9493047E0188E1E80EF11CB701CE01B2
:101390000E940B0FB701C80104960E942C0F7E011A
:1013A0008CE2E80EF11CB701CE0104960E942C0FCE
:1013B000B701C8010E940B0F81E0DF91CF911F910F
:1013C0000F91FF90EF90089580E0F7CF04960C9472
:1013D000DF10CF93DF93C0914805D0914905209746
:1013E00059F0E881F9810084F185E02DCE0109955D
:1013F0000A80DB81C02DF3CFC0914405D091450513
:10140000209759F0E881F9810084F185E02DCE0123
:1014100009950A80DB81C02DF3CFC0914005D091A2
:101420004105209759F0E881F9810084F185E02D8C
:10143000CE0109950A80DB81C02DF3CFC0913C0518
:10144000D0913D05209759F0E881F9810084F1851C
:10145000E02DCE0109950A80DB81C02DF3CFC0912C
:101460003805D0913905209759F0E881F981008439
:10147000F185E02DCE0109950A80DB81C02DF3CFE7
:10148000C0913405D0913505209759F0E881F98154
:101490000084F185E02DCE0109950A80DB81C02D05
:1014A000F3CFC0913005D0913105209759F0E881F4
:1014B000F9810084F185E02DCE0109950A80DB8158
:1014C000C02DF3CFDF91CF910895CF93DF93C091DB
:1014D0009A05D0919B052097C9F08E819F810A8043
:1014E000DB81C02D209729F02E813F818217930741
:1014F00059F0DC01ED91FC910484F585E02D09950E
:10150000209721F02E813F81C901E9CFDF91CF9152
:101510000895CF92DF92EF92FF920F931F93CF9394
:10152000DF938C010E94AC090E943905C091AE0284
:10153000D091AF02209759F0E881F9810480F581BC
:10154000E02DCE0109950A80DB81C02DF3CFC0913B
:101550004C05D0914D05209759F0E881F981048020
:10156000F581E02DCE0109950A80DB81C02DF3CFF6
:10157000C8010E94650AC0914805D091490520978D
:1015800059F0E881F9810480F581E02DCE010995BB
:101590000A80DB81C02DF3CFC0914405D091450571
:1015A000209759F0E881F9810480F581E02DCE0182
:1015B00009950A80DB81C02DF3CFC0914005D09101
:1015C0004105209759F0E881F9810480F581E02DEB
:1015D000CE0109950A80DB81C02DF3CFC0913C0577
:1015E000D0913D05209759F0E881F9810480F5817B
:1015F000E02DCE0109950A80DB81C02DF3CFC0918B
:101600003805D0913905209759F0E881F981048097
:10161000F581E02DCE0109950A80DB81C02DF3CF45
:10162000C0913405D0913505209759F0E881F981B2
:101630000480F581E02DCE0109950A80DB81C02D63
:10164000F3CFC0913005D0913105209759F0E88152
:10165000F9810480F581E02DCE0109950A80DB81B6
:10166000C02DF3CFC091AA02D091AB02209759F0C0
:10167000E881F9810480F581E02DCE0109950A8089
:10168000DB81C02DF3CFC0912C05D0912D05209783
:1016900059F0E881F9810480F581E02DCE010995AA
:1016A0000A80DB81C02DF3CF0E94AC17F801C08403
:1016B000D184E284F3846C197D098E099F096487C3
:1016C000758786879787DF91CF911F910F91FF9044
:1016D000EF90DF90CF900895DF92EF92FF920F93FB
:1016E0001F93CF93DF93C0919A05D0919B052097CC
:1016F00049F10E811F817E01D12CE881F98106809C
:10170000F781E02DCE010995D82A0A80DB81C02D12
:101710002097B1F08E819F8108171907D9F48C01A9
:10172000ECCFD801ED91FC910288F389E02DC8013E
:101730000995209739F08E819F817E01D12CEFCFC2
:10174000D1100AC0DF91CF911F910F91FF90EF90C0
:10175000DF900895DD2079F3D801ED91FC910684A6
:10176000F785E02DC8010995D801ED91FC9100881D
:10177000F189E02DC8010995CE15DF0591F2D70159
:10178000ED91FC910480F581E02DC7010995F701E9
:10179000E280F380F1CFCF93DF93C091AE02D0917E
:1017A000AF02209759F0E881F9810680F781E02D9A
:1017B000CE0109950A80DB81C02DF3CFDF91CF9157
:1017C0000895CF92DF92EF92FF920F931F93CF93E2
:1017D000DF93EC010E9465050091AA021091AB0213
:1017E0000115110561F0D801ED91FC910680F7819A
:1017F000E02DC8010995F80102811381F1CF0E9403
:10180000CB0BCE010E94E9090E94AC17CC84DD8489
:10181000EE84FF84088519852A853B85AB01BC01D0
:101820004C195D096E097F0940175107620773075C
:1018300068F0D701C601800F911FA21FB31F8C87CC
:101840009D87AE87BF87CE010E946C0BDF91CF9141
:101850001F910F91FF90EF90DF90CF900C944F0568
:101860000E94F008909351058093500508950895C3
:10187000089580919E0590919F05009749F42091CD
:10188000B0023091B1022115310511F0C90108975C
:101890000895CF93DF93EC018FEA91E099838883D9
:1018A00083ED91E09D838C8381EE91E09987888719
:1018B0008DEE91E09F878E870E94390CC817D9075B
:1018C00021F410929F0510929E0583EA91E099877A
:1018D0008887CE0108960E943501CE01DF91CF9115
:1018E0000C949C08CF92DF92EF92FF92CF93DF93FC
:1018F000EC016A017B0104960E94DF1088899989B6
:10190000009781F0DC01ED91FC910190F081E02DD8
:10191000A7019601BE01DF91CF91FF90EF90DF907C
:10192000CF900994DF91CF91FF90EF90DF90CF900F
:101930000895EF92FF920F931F93CF93DF9300D000
:1019400000D01F92CDB7DEB77C0129833A834B8349
:101950005C836D83C70104960E943111D7015096B4
:101960008D919C91009769F0DC01ED91FC910280D2
:10197000F381E02D09811A812B813C814D81B701D2
:1019800009950F900F900F900F900F90DF91CF91CE
:101990001F910F91FF90EF900895CF92DF92EF92F9
:1019A000FF92CF93DF93EC016A017B0104960E94C2
:1019B000841188899989009781F0DC01ED91FC916F
:1019C0000480F581E02DA7019601BE01DF91CF9142
:1019D000FF90EF90DF90CF900994DF91CF91FF902F
:1019E000EF90DF90CF9008950F931F93CF93DF93E5
:1019F000EC018B0104960E94C11188899989009796
:101A000069F0DC01ED91FC910680F781E02DA801E1
:101A1000BE01DF91CF911F910F910994DF91CF917A
:101A20001F910F910895DC0118968D919C9100975C
:101A300039F0DC01ED91FC910088F189E02D0994E9
:101A400090E080E00895DC011A968D919C910097BA
:101A500039F0DC01ED91FC910084F185E02D0994D1
:101A600090E080E0089504970C94230DEF92FF928C
:101A70000F931F93CF93DF93EC018B017A01888939
:101A80009989009729F06817790711F00E9493044B
:101A9000198B088BEC85FD8580819181009781F001
:101AA0002A853B852E153F0559F4DC01ED91FC910B
:101AB0000484F585E02DAE014C5F5F4FB8010995B8
:101AC00088859985009759F0DC01ED91FC9104849B
:101AD000F585E02DAE014C5F5F4FB80109958A8511
:101AE0009B850097D9F0E816F906C1F06A897B89D1
:101AF0006115710541F0DC01ED91FC910680F781E3
:101B0000E02DAE0109958A859B85DC01ED91FC9164
:101B10000480F581E02DAE01B8010995EE85FF85C1
:101B2000808191810097A9F09C012C5F3F4FE216C4
:101B3000F30679F0DC01ED91FC91048CF58DE02D3C
:101B4000AE01B801DF91CF911F910F91FF90EF90FF
:101B50000994DF91CF911F910F91FF90EF9008951D
:101B6000EF92FF920F931F93CF93DF93EC018B01C2
:101B70007A0188899989009729F06817790711F007
:101B80000E949304198A188AEC85FD8580819181D1
:101B9000009781F02A853B852E153F0559F4DC011D
:101BA000ED91FC910684F785E02DAE014C5F5F4F0F
:101BB000B801099588859985009759F0DC01ED9168
:101BC000FC910684F785E02DAE014C5F5F4FB801B4
:101BD00009958A859B850097D9F0E816F906C1F02A
:101BE000DC01ED91FC910680F781E02DAE01B8019A
:101BF00009956A897B896115710551F08A859B85F4
:101C0000DC01ED91FC910480F581E02DAE01099598
:101C1000EE85FF85808191810097A9F09C012C5F62
:101C20003F4FE216F30679F0DC01ED91FC91068C52
:101C3000F78DE02DAE01B801DF91CF911F910F918B
:101C4000FF90EF900994DF91CF911F910F91FF903A
:101C5000EF9008950F931F93CF93DF93EC01888546
:101C600099858417950711F58B01798B688B8A8587
:101C70009B85009741F0DC01ED91FC910480F5819A
:101C8000E02DAE010995EE85FF8580819181009759
:101C9000F9F0DC01ED91FC91048CF58DE02DAE01A5
:101CA000B801DF91CF911F910F9109948A899B8987
:101CB000892B71F47B8B6A8B8A859B85009741F019
:101CC000DC01ED91FC910480F581E02DAE01E9CFBE
:101CD000DF91CF911F910F91089504970C942A0ED4
:101CE0000F931F93CF93DF93EC018B018885998528
:101CF0008417950709F5198A188A8A859B850097A4
:101D000041F0DC01ED91FC910680F781E02DAE0100
:101D10000995EE85FF8580819181009701F1DC01B5
:101D2000ED91FC91068CF78DE02DAE01B801DF91AD
:101D3000CF911F910F9109946A897B896017710770
:101D400071F41B8A1A8A8A859B85009741F0DC0111
:101D5000ED91FC910680F781E02DAE01E8CFDF9197
:101D6000CF911F910F91089504970C94700EDC0190
:101D70001296ED91FC911397309731F011861086F1
:101D800013961C921E9212970895DC011296ED9103
:101D9000FC911397309731F01386128613961C929C
:101DA0001E9212970895FC01A281B381109749F009
:101DB000ED91FC9111970484F585E02DAC01CD01E6
:101DC00009940895FC01A281B381109749F0ED9127
:101DD000FC9111970684F785E02DAC01CD010994A3
:101DE0000895DC011296ED91FC91309739F08089CD
:101DF0009189009729F482899389089590E080E081
:101E00000895FC0120853185232B11F00E94930455
:101E10007187608708950F931F93CF93DF93EC0131
:101E20008B018A819B81009759F4BE01C8010E94F1
:101E3000010F1B830A83DF91CF911F910F910895AA
:101E4000EC01EFCFFC0122853385232B11F00E949A
:101E500093047387628708950F931F93CF93DF9343
:101E6000EC018B018A819B81009759F4BE01C80166
:101E70000E94220F1B830A83DF91CF911F910F9144
:101E80000895EC012496EECFEF92FF920F931F93EB
:101E9000CF93DF93EC01088519850115110589F0B1
:101EA000EE85FF85E080F180E114F10451F0C80176
:101EB0000E94B70ECE010E94B70EB701C8010E9462
:101EC0000B0F0A851B850115110591F0EC85FD8529
:101ED000E080F180E114F10459F0C8010E94C50EC0
:101EE000CE0104960E94C50EB701C8010E942C0FB6
:101EF00088859985009711F00E94B70E8A859B8589
:101F0000009711F00E94C50EEE85FF8580819181BA
:101F1000892B31F4EC85FD8580819181892B11F02D
:101F20000E949304DF91CF911F910F91FF90EF904A
:101F30000895CF93DF93EC018A819B81009741F054
:101F40000E94990F8A819B810E94440F1B821A82F2
:101F5000DF91CF91089529EF31E0FC013183208397
:101F60000C94990FCF93DF93EC018A819B810097AA
:101F700049F004960E94B20F8A819B810E94440F0F
:101F80001B821A82DF91CF9108952FE032E0FC018D
:101F9000318320830C94B20FCF93DF93EC010E9426
:101FA000C50F64E070E0CE01DF91CF910C9454171F
:101FB000CF93DF93EC018DE192E09983888381E4F4
:101FC00092E09D838C83CE010E94440FCE01049643
:101FD0000E94C50FCE01DF91CF910C94AB0FCF9330
:101FE000DF93EC010E94D80F64E170E0CE01DF9135
:101FF000CF910C94541704970C94EF0F04970C9402
:10200000D80F1F93CF93DF93EC01888999890097AC
:1020100041F48A899B89892B31F4DF91CF911F91FB
:102020000895019621F18A899B89019601F11BE0AF
:1020300088899989009721F42A893B89232B69F3A0
:10204000115059F3009739F0DC01ED91FC910680B5
:10205000F781E02D09958A899B89009749F3DC0176
:10206000ED91FC910680F781E02D0995E1CF0E946A
:102070009304FC0182819381009711F00C9401106C
:102080000895DC0118968D919C91009739F0DC0140
:10209000ED91FC910480F581E02D099408950C9454
:1020A00041100C944110CF93DF9300D000D01F92C9
:1020B000CDB7DEB729833A834B835C836D83DC0124
:1020C00018968D919C91009771F0DC01ED91FC9137
:1020D0000680F781E02D0F900F900F900F900F90DA
:1020E000DF91CF9109940F900F900F900F900F9068
:1020F000DF91CF910895CF93DF9300D000D01F924E
:10210000CDB7DEB70F900F900F900F900F90DF912B
:10211000CF910C945310CF93DF9300D000D01F9237
:10212000CDB7DEB70F900F900F900F900F90DF910B
:10213000CF910C945310DC0118968D919C910097CF
:1021400039F0DC01ED91FC910084F185E02D0994DA
:1021500008950C949B100C949B10DC0118968D91A3
:102160009C91009739F0DC01ED91FC910284F3859C
:10217000E02D099408950C94AD100C94AD10CF92FD
:10218000DF92EF92FF92CF93DF93EC016A017B0124
:10219000EC85FD8580819181009711F00E94BF1030
:1021A000E881F9810288F389E02DB701A601CE010B
:1021B000DF91CF91FF90EF90DF90CF900994CF9275
:1021C000DF92EF92FF92CF93DF93FC012281338164
:1021D000232B89F06A017B01EC010E943910B701C1
:1021E000A6018A819B81DF91CF91FF90EF90DF90D4
:1021F000CF900C94BF10DF91CF91FF90EF90DF90C4
:10220000CF9008950F931F93CF93DF9300D000D00A
:102210001F92CDB7DEB78C0129833A834B835C8351
:102220006D83DC011C96ED91FC918081918100977A
:1022300011F00E940211D801ED91FC910488F589FA
:10224000E02D29813A814B815C816D81C8010F901D
:102250000F900F900F900F90DF91CF911F910F91E2
:1022600009940F931F93CF93DF9300D000D01F9258
:10227000CDB7DEB729833A834B835C836D83FC0142
:1022800022813381232BB1F08C010E9439102981E6
:102290003A814B815C816D81F801828193810F903D
:1022A0000F900F900F900F90DF91CF911F910F9192
:1022B0000C9402110F900F900F900F900F90DF91E0
:1022C000CF911F910F910895CF92DF92EF92FF92DD
:1022D000CF93DF93EC016A017B01EC85FD85808162
:1022E0009181009711F00E946411E881F9810688BC
:1022F000F789E02DB701A601CE01DF91CF91FF90C4
:10230000EF90DF90CF900994CF92DF92EF92FF92FF
:10231000CF93DF93FC0122813381232B89F06A0163
:102320007B01EC010E943910B701A6018A819B81D3
:10233000DF91CF91FF90EF90DF90CF900C946411DC
:10234000DF91CF91FF90EF90DF90CF9008950F93A2
:102350001F93CF93DF93EC018B01EC85FD8580818A
:102360009181009711F00E94A711E881F981008CFA
:10237000F18DE02DB801CE01DF91CF911F910F912A
:102380000994FC0182819381009711F00C94A711AC
:102390000895FF920F931F93CF93DF938C01C42F67
:1023A000F52ED62FDC0152968D919C91DC01ED919A
:1023B000FC910190F081E02D642F0995F80182894C
:1023C0009389DC01ED91FC910190F081E02D6F2D5E
:1023D0000995C07FC13B10F0C03E81F4F8018289AD
:1023E0009389DC01ED91FC910190F081E02D6D2F3E
:1023F000DF91CF911F910F91FF900994DF91CF91C1
:102400001F910F91FF900895CF93DF9300D000D0DC
:102410001F92CDB7DEB729833A834B835C836D83EC
:10242000DC0152968D919C914B815C8169817A810E
:10243000DC01ED91FC910280F381E02D0F900F9073
:102440000F900F900F90DF91CF910994DC0152967D
:102450008D919C91DC01ED91FC910190F081E02D3A
:102460000994FF920F931F93CF93DF93EC01142FE6
:10247000F52E062F8A899B89DC01ED91FC91019054
:10248000F081E02D642F0995143FD8F48A899B8947
:10249000DC01ED91FC910190F081E02D6F2D09950B
:1024A000123F79F48A899B89DC01ED91FC910190BE
:1024B000F081E02D602FDF91CF911F910F91FF9060
:1024C0000994DF91CF911F910F91FF900895EF92A2
:1024D000FF920F931F93CF938C010C5E1F4FDC0173
:1024E0005296ED90FC90C8010E94AD14C82F811146
:1024F00011C0D701ED91FC910284F385E02DC70155
:10250000099597FD07C0682FC8010E94A814882369
:1025100081F3C82F8C2FCF911F910F91FF90EF90D7
:102520000895FC01808D918D0895CF92DF92EF92F6
:10253000FF920F931F93CF93DF93CDB7DEB72A9708
:102540000FB6F894DEBF0FBECDBF8C01633009F427
:1025500073C098F4613051F16230E9F12A960FB6F8
:10256000F894DEBF0FBECDBFDF91CF911F910F91C9
:10257000FF90EF90DF90CF900895643061F1653067
:1025800069F7FC0144895589668977892A960FB6CF
:10259000F894DEBF0FBECDBFDF91CF911F910F9199
:1025A000FF90EF90DF90CF900C94CD0CFC0144890C
:1025B0005589668977892A960FB6F894DEBF0FBED3
:1025C000CDBFDF91CF911F910F91FF90EF90DF90E2
:1025D000CF900C94720C7801FAE1EF0EF11CC70158
:1025E0000E94FA146C01C7010E94FB14DA82C982AE
:1025F0009C838B838D81807F8D8385E0FE01319666
:10260000DE01169601900D928A95E1F72E813F81A9
:10261000488559856A85C8012A960FB6F894DEBFA9
:102620000FBECDBFDF91CF911F910F91FF90EF9023
:10263000DF90CF900C94990C0E949112BC01C801BC
:102640002A960FB6F894DEBF0FBECDBFDF91CF91B3
:102650001F910F91FF90EF90DF90CF900C94F40CAE
:10266000CF92DF92EF92FF920F931F93CF93DF935E
:10267000EC016C0124E0C20ED11CC6010E94F10ED7
:102680007E012EE0E20EF11C209711F4F12CE12CDA
:102690008E159F0521F4B701C6010E94E20ECE01FE
:1026A0000E946712182F00E0112381F0612FCE01E4
:1026B0000E949512143041F0123009F400E0CE016E
:1026C0000E946712182FF0CF01E0F9CF002361F0CC
:1026D000B701C601DF91CF911F910F91FF90EF904D
:1026E000DF90CF900C94D30EDF91CF911F910F917B
:1026F000FF90EF90DF90CF9008950C9430130897DF
:102700000C943013CF92DF92EF92FF921F93CF93EE
:10271000DF93EC010496BE01625F7F4F209711F4B6
:1027200070E060E00E94E20E0E94A0176B017C0145
:102730000E94A0176C197D098E099F09643F7140A2
:102740008105910560F4CE010E946712182F682F51
:10275000CE010E949512143039F3123049F7DF91FF
:10276000CF911F91FF90EF90DF90CF9008950C9440
:1027700082130E970C948213CF92DF92EF92FF9206
:102780001F93CF93DF93EC01162F6C018BE8C80EDB
:10279000D11CF6018081803F41F5673F11F03296F0
:1027A00060837E01F6E0EF0EF11C61E0C7010E943C
:1027B000EB1481110CC0C357DF4F188384E0DF9105
:1027C000CF911F91FF90EF90DF90CF90089567EF2A
:1027D000C7010E94DD14C7010E94D814F6011082BF
:1027E000C457DF4F188282E0EACF663F81F46883E6
:1027F00019821A82FE01E757FF4F8081882319F062
:10280000C457DF4F1882F601108285E0D8CF603FB1
:1028100091F47E01F6E0EF0EF11CC7010E94CD1489
:1028200060EFC7010E94DD14C457DF4F1882F60124
:10283000108380E0C4CF673FE1F36083C657DF4F6A
:102840001882F7CF683F10F40C94BC13FC0164832A
:1028500083E00895EF92FF920F931F93CF93DF933E
:10286000FC01EC01C557DF4F8881811108C0DF01F1
:10287000A457BF4F8C91882309F463C08883988143
:10288000908380E8890FDF01A657BF4F2C91222348
:1028900021F1803740F462831C92E457FF4F90830C
:1028A000188281E013C0892F887F803FD9F5903F3F
:1028B000C9F162831C92DF01A757BF4F8C91882317
:1028C00019F0E457FF4F1082188285E0DF91CF9115
:1028D0001F910F91FF90EF900895803748F4892F52
:1028E000807F6183813B58F1803E49F11282D5CFD0
:1028F000892F887F803FA1F4903FC9F4C62F8F01B4
:102900007F0186E0E80EF11C61E0C7010E94EB1434
:10291000811119C0F801E357FF4FC08384E0D6CF7F
:10292000903F61F3E457FF4F108218820AC0923F34
:1029300029F0943FB8F761831282BDCF618381E0B3
:102940008C9380E0C3CF6C2FC7010E94DD14F9CFB8
:1029500067FD0C9422140C942A141F93CF93DF93D9
:10296000FC01E357FF4F10811F3F91F0EC018FEF07
:10297000808332978081803F21F4CE0106960E94A9
:10298000CD14612FCE01DF91CF911F910C94A8142B
:1029900080E0DF91CF911F910895FC01E058FF4F37
:1029A000118210828E579F4F21E0FC0120830895F1
:1029B0008E579F4FFC0110820895FC01E058FF4F95
:1029C00020813181820F931FDC016C932F5F3F4F79
:1029D000318320830895FC01E058FF4F20E830E068
:1029E000261B310981E0408151812417350708F405
:1029F00080E00895089580589F4FFC018081918167
:102A00000895FC01918D228D892F90E0805C9F4F6D
:102A1000821B91098F7399270895FC01918D828DF6
:102A2000981731F0828DE80FF11D858D90E00895A3
:102A30008FEF9FEF0895FC01918D828D981761F0C3
:102A4000A28DAE0FBF2FB11D5D968C91928D9F5FB1
:102A50009F73928F90E008958FEF9FEF0895FC0190
:102A6000538D448D252F30E0842F90E0821B930BF3
:102A7000541710F0CF960895019708958AE896E1CB
:102A8000892B49F080E090E0892B29F00E948A167A
:102A900081110C9400000895FC01A48DA80FB92F9A
:102AA000B11DA35ABF4F2C91848D90E001968F7376
:102AB0009927848FA689B7892C93A089B1898C9195
:102AC00082748C93938D848D981306C00288F38949
:102AD000E02D80818F7D80830895CF93DF93EC017B
:102AE000888D8823B9F0AA89BB89E889F9898C91F6
:102AF00085FD03C0808186FD0DC00FB607FCF7CFB2
:102B00008C9185FFF2CF808185FFEDCFCE010E94B1
:102B10004C15E9CFDF91CF910895EF92FF920F937B
:102B20001F93CF93DF93EC0181E0888F9B8D8C8D79
:102B3000981319C0E889F989808185FF14C09FB76F
:102B4000F894EE89FF896083E889F989808182742D
:102B500080839FBF81E090E0DF91CF911F910F9123
:102B6000FF90EF900895F62E0B8D10E00F5F1F4F32
:102B70000F731127E02E8C8D8E110CC00FB607FC41
:102B8000FACFE889F989808185FFF5CFCE010E94CF
:102B90004C15F1CFEB8DEC0FFD2FF11DE35AFF4FDC
:102BA000F0829FB7F8940B8FEA89FB89808180625D
:102BB000CFCFCF92DF92EF92FF921F93CF93DF930D
:102BC000EC016A017B01122FE889F98982E0808398
:102BD000C11481EED806E104F104A1F060E079E0CF
:102BE0008DE390E0A70196010E94D718215031098A
:102BF000410951095695479537952795211580E14B
:102C0000380798F0E889F989108260E874E88EE165
:102C100090E0A70196010E94D7182150310941097F
:102C200051095695479537952795EC85FD85308355
:102C3000EE85FF852083188E1068EC89FD8910834E
:102C4000EA89FB89808188698083EA89FB898081A0
:102C50008F7D8083DF91CF911F91FF90EF90DF9068
:102C6000CF9008951F920F920FB60F9211242F93B9
:102C70008F939F93EF93FF93E091B005F091B1058F
:102C80008081E091B605F091B70582FD1BC090816F
:102C90008091B9058F5F8F732091BA05821741F03B
:102CA000E091B905F0E0E056FA4F958F8093B905B1
:102CB000FF91EF919F918F912F910F900FBE0F90E9
:102CC0001F9018958081F4CF1F920F920FB60F922C
:102CD00011242F933F934F935F936F937F938F9321
:102CE0009F93AF93BF93EF93FF9380EA95E00E9489
:102CF0004C15FF91EF91BF91AF919F918F917F9173
:102D00006F915F914F913F912F910F900FBE0F9058
:102D10001F90189580EA95E00E94011521E0892B0B
:102D200009F420E0822F0895E0EAF5E01382128290
:102D300088EE93E0A0E0B0E084839583A683B78318
:102D40008BE992E09183808380E490E0958784878B
:102D500029E230E0378726872BE230E0318B208B69
:102D60002AE230E0338B228B958B848B8CE290E0CF
:102D7000978B868B118E128E138E148E0895AF92C0
:102D8000BF92CF92DF92EF92FF920F931F93CF9358
:102D9000DF936C017B018B01040F151FEB015E01BA
:102DA000AE18BF08C017D10759F06991D601ED914F
:102DB000FC910190F081E02DC6010995892B79F7EE
:102DC000C501DF91CF911F910F91FF90EF90DF90A0
:102DD000CF90BF90AF90089508951F920F920FB6B5
:102DE0000F9211242F933F934F935F936F937F9391
:102DF0008F939F93AF93BF93EF93FF93E0918000E6
:102E0000F09181000995FF91EF91BF91AF919F9152
:102E10008F917F916F915F914F913F912F910F9083
:102E20000FBE0F901F9018951F920F920FB60F9222
:102E300011242F933F934F935F936F937F938F93BF
:102E40009F93AF93BF93EF93FF93E0918200F09134
:102E500083000995FF91EF91BF91AF919F918F9161
:102E60007F916F915F914F913F912F910F900FBE86
:102E70000F901F9018950E94241A0E943B1790E013
:102E800080E0089508950E940B180E9442170E9446
:102E9000C902CEE3D5E10E94ED022097E1F30E9442
:102EA0003E15F9CF0C949B190C9452171F920F9258
:102EB0000FB60F9211242F933F938F939F93AF934D
:102EC000BF938091420690914306A0914406B09131
:102ED00045063091410623E0230F2D3768F126E89F
:102EE000230F0296A11DB11D209341068093420637
:102EF00090934306A0934406B093450680913D0607
:102F000090913E06A0913F06B09140060196A11D0A
:102F1000B11D80933D0690933E06A0933F06B0936B
:102F20004006BF91AF919F918F913F912F910F904C
:102F30000FBE0F901F9018950196A11DB11DD4CF03
:102F40002FB7F89460914206709143068091440631
:102F5000909145062FBF08953FB7F89480913D06A4
:102F600090913E06A0913F06B091400622B708B668
:102F700000FE05C02F3F19F00196A11DB11D3FBFF6
:102F8000BA2FA92F982F8827BC01CD01620F711D80
:102F9000811D911D42E0660F771F881F991F4A957A
:102FA000D1F708958F929F92AF92BF92CF92DF9206
:102FB000EF92FF926B017C010E94AC174B015C0108
:102FC000C114D104E104F104E9F00E94D6180E9472
:102FD000AC17681979098A099B09683E7340810515
:102FE000910570F321E0C21AD108E108F10888EEDA
:102FF000880E83E0981EA11CB11CC114D104E10409
:10300000F10429F7FF90EF90DF90CF90BF90AF9041
:103010009F908F900895789483B7836083BF83B720
:10302000886483BF89B7816089BF82E08EBD8EB519
:1030300081608EBD8FB581608FBD85B5846085BD93
:1030400085B5806485BD87E886B91AB8089584304F
:1030500059F028F4813099F0823089F00895853054
:1030600039F0873041F008958FB58F778FBD08957F
:103070008FB58F7DFBCF85B58F7D85BD089583B7D7
:103080008F7D83BF0895CF93DF9390E0FC01EC58D0
:10309000FF4F24918C569F4FFC0184918823C9F0E7
:1030A00090E0880F991FFC01E853FF4FA591B49160
:1030B000FC01E254FF4FC591D49161110DC09FB73F
:1030C000F8948C91209582238C93888128232883DF
:1030D0009FBFDF91CF910895623051F49FB7F8946C
:1030E0003C91822F809583238C93E8812E2BEFCF08
:1030F0008FB7F894EC912E2B2C938FBFEACF1F93B0
:10310000CF93DF93282F30E0F901EC5AFF4F8491E1
:10311000F901EC58FF4FD491F901EC56FF4FC491DF
:10312000CC23A9F0162F81110E942718EC2FF0E074
:10313000EE0FFF1FE254FF4FA591B4918FB7F894A3
:10314000EC91111108C0D095DE23DC938FBFDF9185
:10315000CF911F910895DE2BF8CFCF93DF93282FC7
:1031600030E0F901EC5AFF4F8491F901EC58FF4F20
:10317000D491F901EC56FF4FC491CC23A1F08111F9
:103180000E942718EC2FF0E0EE0FFF1FEC54FF4FCA
:10319000A591B491EC91ED2381E090E009F480E0F9
:1031A000DF91CF91089580E090E0FACF0895A1E2F9
:1031B0001A2EAA1BBB1BFD010DC0AA1FBB1FEE1FB1
:1031C000FF1FA217B307E407F50720F0A21BB30BFC
:1031D000E40BF50B661F771F881F991F1A9469F778
:1031E00060957095809590959B01AC01BD01CF01D4
:1031F0000895EE0FFF1F0590F491E02D09940F93B1
:103200001F93CF93DF938230910510F482E090E01A
:10321000E0914806F091490630E020E0B0E0A0E0FF
:10322000309799F42115310509F44AC0281B390B50
:1032300024303105D8F58A819B816115710589F1AA
:10324000FB0193838283FE0111C040815181028181
:10325000138148175907E0F04817590799F4109758
:1032600061F012960C93129713961C933296CF012D
:10327000DF91CF911F910F9108950093480610930D
:103280004906F4CF2115310551F04217530738F0A4
:10329000A901DB019A01BD01DF01F801C1CFEF01F6
:1032A000F9CF9093490680934806CDCFFE01E20FF7
:1032B000F31F819391932250310939832883D7CF0B
:1032C0002091460630914706232B41F4209162005D
:1032D00030916300309347062093460620916000AA
:1032E000309161002115310541F42DB73EB7409171
:1032F000640050916500241B350BE0914606F09167
:103300004706E217F307A0F42E1B3F0B28173907D7
:1033100078F0AC014E5F5F4F2417350748F04E0F31
:103320005F1F5093470640934606819391939FCF2A
:10333000F0E0E0E09CCFCF93DF930097E9F0FC0151
:10334000329713821282A0914806B0914906ED018E
:1033500030E020E01097A1F420813181820F931F8B
:1033600020914606309147062817390709F061C0B9
:10337000F0934706E0934606DF91CF910895EA0166
:10338000CE17DF07E8F54A815B819E0141155105A3
:10339000B1F7E901FB83EA8349915991C40FD51F25
:1033A000EC17FD0761F4808191810296840F951FCF
:1033B000E90199838883828193819B838A83F0E0EA
:1033C000E0E012968D919C9113970097B9F52D919D
:1033D0003C911197CD010296820F931F20914606D2
:1033E000309147062817390739F6309751F5109272
:1033F000490610924806B0934706A0934606BCCFF4
:10340000D383C28340815181840F951FC817D90788
:1034100061F44E5F5F4F88819981480F591F518336
:1034200040838A819B81938382832115310509F032
:10343000B0CFF0934906E09348069ECFFD01DC0132
:10344000C0CF13821282D7CF81E090E0F8940C9421
:10345000291A10E0CCE6D0E004C0FE010E94F91861
:0C3460002196CD36D107C9F7F894FFCFB4
:10346C0000004A0680001D0200004102000000001E
:10347C0000006C0068000000000000001900000053
:10348C00EC16000000003C3F3E0000000000000075
:10349C0000003D173D173D173D1797009800990008
:1034AC00FCFF0000000000009A009B009C00000044
:1034BC00000035017001000000007C01B701000024
:1034CC000000000000003D173D1700000000C30184
:1034DC00CA01F400070100000000D601DD01F40070
:1034EC0007010000000052026E02E901A100F70082
:1034FC00DA00970098009900E4007D13C91131128D
:10350C0004122612A000B713FCFF000068027A0216
:10351C009A009B009C00F8FF00006B027D02F100FA
:10352C007F13F2FF0000650280029D00B9130000BA
:10353C00000083029F02E901A100F700DA00970066
:10354C0098009900E4007D13C9113112041226125F
:10355C00A000B713FCFF00009C02B1029A009B0074
:10356C009C00F8FF00009902AE02F1007F13F2FFFD
:10357C0000009602AB029D00B9130000000000B3DE
:10358C0008D208BB06370624062E06970098009929
:10359C0000FCFF0000CB08DE089A009B009C00009A
:1035AC00000000000000003D173D17000000000067
:1035BC00000000E901A100F700DA009700980099DB
:1035CC0000370C3D173D173D173D173D173D17FCB8
:1035DC00FF0000000000009A009B009C00F8FF0018
:1035EC000000000000380C3D17F2FF000000000046
:1035FC00009D003D1700000000000000003D173D3D
:10360C00173D173D1797009800990000000000C562
:10361C000FCC0F9A009B009C0000000000D80FEF0D
:10362C000F51108B10AB10BD10360DB00D130D4F8C
:10363C00107B10A910BB10230D2A0E700EFCFF007E
:10364C0000FE0FFB0F6D0EB40E330D0000000036A4
:10365C0002B402E901A100F700DA00970098009982
:10366C0000370C7D13C911311204122612A000B7B9
:10367C0013FCFF00004F02C6029A009B009C00F84E
:10368C00FF00004C02C302380C7F13F2FF0000490C
:10369C0002C0029D00B913000000008D15BF162F4B
:0A36AC00156D1501151B150D150015
:00000001FF
