:100000000C9462000C948A000C948A000C948A0070
:100010000C948A000C948A000C948A000C948A0038
:100020000C948A000C948A000C948A000C948A0028
:100030000C948A000C948A000C948A000C948A0018
:100040000C94B6020C948A000C9426030C940003C2
:100050000C948A000C948A000C948A000C948A00F8
:100060000C948A000C948A000000000024002700F1
:100070002A0000000000250028002B0000000000DE
:1000800023002600290004040404040404040202DA
:100090000202020203030303030301020408102007
:1000A0004080010204081020010204081020000012
:1000B0000008000201000003040700000000000027
:1000C0000000630611241FBECFEFD8E0DEBFCDBF16
:1000D00011E0A0E0B1E0E0E3FDE002C005900D9288
:1000E000A231B107D9F721E0A2E1B1E001C01D9230
:1000F000A83BB207E1F710E0C2E6D0E004C02197C8
:10010000FE010E949006C136D107C9F70E9458032C
:100110000C9496060C940000833081F028F4813012
:1001200099F08230A9F008958730A9F08830C9F09D
:100130008430B1F4809180008F7D03C08091800075
:100140008F7780938000089584B58F7784BD08955C
:1001500084B58F7DFBCF8091B0008F778093B00006
:1001600008958091B0008F7DF9CFCF93DF93282F32
:1001700030E0F901E255FF4F8491F901E656FF4F57
:10018000D491F901EA57FF4FC491CC23A1F081111A
:100190000E948C00EC2FF0E0EE0FFF1FE458FF4FA1
:1001A000A591B491EC91ED2381E090E009F480E019
:1001B000DF91CF91089580E090E0FACF1F93CF9325
:1001C000DF93282F30E0F901E255FF4F8491F901C8
:1001D000E656FF4FD491F901EA57FF4FC491CC2363
:1001E000A9F0162F81110E948C00EC2FF0E0EE0F89
:1001F000FF1FEE58FF4FA591B4918FB7F894EC9183
:10020000111108C0D095DE23DC938FBFDF91CF9111
:100210001F910895DE2BF8CFCF93DF9390E0FC0180
:10022000E656FF4F24918A579F4FFC018491882303
:10023000D1F090E0880F991FFC01E859FF4FA5917C
:10024000B491FC01EE58FF4FC591D491623071F426
:100250009FB7F8943C91822F809583238C93E881FB
:100260002E2B28839FBFDF91CF9108958FB7F894ED
:10027000EC912E2B2C938FBFF6CF3FB7F894809143
:10028000B4019091B501A091B601B091B70126B526
:10029000A89B05C02F3F19F00196A11DB11D3FBFBE
:1002A000BA2FA92F982F8827BC01CD01620F711D8D
:1002B000811D911D42E0660F771F881F991F4A9587
:1002C000D1F708958F929F92AF92BF92CF92DF9213
:1002D000EF92FF924B015C010E943D016B017C019A
:1002E0000E943D016C197D098E099F09683E73408B
:1002F00081059105A8F321E0821A9108A108B108AF
:1003000088EEC80E83E0D81EE11CF11C8114910414
:10031000A104B10429F7FF90EF90DF90CF90BF9038
:10032000AF909F908F900895AF92BF92CF92DF923F
:10033000EF92FF920F931F93CF93DF936C017B019A
:100340008B01040F151FEB015E01AE18BF08C0172B
:10035000D10759F06991D601ED91FC910190F0819E
:10036000E02DC6010995892B79F7C501DF91CF9161
:100370001F910F91FF90EF90DF90CF90BF90AF90C3
:100380000895FC01538D448D252F30E0842F90E09B
:10039000821B930B541710F0CF9608950197089580
:1003A000FC01918D828D981761F0A28DAE0FBF2F49
:1003B000B11D5D968C91928D9F5F9F73928F90E09F
:1003C00008958FEF9FEF0895FC01918D828D98170E
:1003D00031F0828DE80FF11D858D90E008958FEF4B
:1003E0009FEF0895FC01918D228D892F90E0805C14
:1003F0009F4F821B91098F739927089582E191E0A5
:100400000E94F20121E0892B09F420E0822F089557
:1004100080E090E0892B29F00E94FE0181110C946C
:1004200000000895FC01A48DA80FB92FB11DA35A97
:10043000BF4F2C91848D90E001968F739927848F04
:10044000A689B7892C93A089B1898C918370806427
:100450008C93938D848D981306C00288F389E02DC8
:1004600080818F7D80830895EF92FF920F931F9379
:10047000CF93DF93EC0181E0888F9B8D8C8D981357
:100480001AC0E889F989808185FF15C09FB7F89463
:10049000EE89FF896083E889F989808183708064AF
:1004A00080839FBF81E090E0DF91CF911F910F91FA
:1004B000FF90EF900895F62E0B8D10E00F5F1F4F09
:1004C0000F731127E02E8C8D8E110CC00FB607FC18
:1004D000FACFE889F989808185FFF5CFCE010E94A6
:1004E0001202F1CFEB8DEC0FFD2FF11DE35AFF4F00
:1004F000F0829FB7F8940B8FEA89FB898081806234
:10050000CFCFCF93DF93EC01888D8823B9F0AA89F0
:10051000BB89E889F9898C9185FD03C0808186FDBE
:100520000DC00FB607FCF7CF8C9185FFF2CF80810D
:1005300085FFEDCFCE010E941202E9CFDF91CF916E
:100540000895CF93DF93D62FC42F682F82E191E0D7
:100550000E9434026D2F82E191E00E9434026C2FE0
:1005600082E191E0DF91CF910C9434021F920F92BF
:100570000FB60F9211242F933F938F939F93AF93B6
:10058000BF938091B0019091B101A091B201B0915F
:10059000B3013091AF0123E0230F2D3758F50196B9
:1005A000A11DB11D2093AF018093B0019093B101C3
:1005B000A093B201B093B3018091B4019091B501C1
:1005C000A091B601B091B7010196A11DB11D809314
:1005D000B4019093B501A093B601B093B701BF9158
:1005E000AF919F918F913F912F910F900FBE0F90E0
:1005F0001F90189526E8230F0296A11DB11DD2CF9A
:100600001F920F920FB60F9211242F933F934F9387
:100610005F936F937F938F939F93AF93BF93EF936A
:10062000FF9382E191E00E941202FF91EF91BF914E
:10063000AF919F918F917F916F915F914F913F917A
:100640002F910F900FBE0F901F9018951F920F9231
:100650000FB60F9211242F938F939F93EF93FF93D5
:10066000E0912201F09123018081E0912801F09135
:10067000290182FD1BC0908180912B018F5F8F73B8
:1006800020912C01821741F0E0912B01F0E0EE5E09
:10069000FE4F958F80932B01FF91EF919F918F914A
:1006A0002F910F900FBE0F901F9018958081F4CF5F
:1006B000789484B5826084BD84B5816084BD85B53D
:1006C000826085BD85B5816085BD80916E00816049
:1006D00080936E00109281008091810082608093EF
:1006E00081008091810081608093810080918000F1
:1006F0008160809380008091B10084608093B1001C
:100700008091B00081608093B00080917A00846015
:1007100080937A0080917A00826080937A00809141
:100720007A00816080937A0080917A00806880935B
:100730007A001092C100E0912201F091230182E041
:100740008083E0911E01F0911F011082E091200151
:10075000F09121018FE3808310922A01E09126011C
:10076000F091270186E08083E0912401F09125013A
:10077000808180618083E0912401F0912501808156
:1007800088608083E0912401F09125018081806858
:100790008083E0912401F091250180818F7D808309
:1007A00062E082E10E940C0162E082E00E940C01A2
:1007B00062E083E10E940C0162E083E00E940C0190
:1007C00062E089E00E940C0162E08AE00E940C0174
:1007D00061E084E00E940C0161E084E00E94DE00A0
:1007E00061E085E00E940C0161E085E00E94DE008E
:1007F00061E086E00E940C0161E086E00E94DE007C
:1008000061E087E00E940C0161E087E00E94DE0069
:1008100061E088E00E940C0161E088E00E94DE0057
:10082000C0E0D0E082E10E94B5000197C9F482E007
:100830000E94B5000197A1F483E10E94B5000197E1
:1008400079F483E00E94B500019751F489E00E9499
:10085000B500892B29F08AE00E94B500019711F3B9
:1008600082E10E94B500892B09F056C060E084E067
:100870000E94DE0061E085E00E94DE0061E086E02B
:100880000E94DE0061E087E00E94DE0061E088E017
:100890000E94DE0045E450E064E270E088E990E008
:1008A0000E94A10250E040E065E270E088E990E03B
:1008B0000E94A10250E040E066E270E088E990E02A
:1008C0000E94A10250E040E067E270E088E990E019
:1008D0000E94A10250E040E068E270E088E990E008
:1008E0000E94A10250E040E069E270E088E990E0F7
:1008F0000E94A10282E10E94B500892B39F46AE0CE
:1009000070E080E090E00E946201F4CF62E370E06A
:1009100080E090E00E94620182E00E94B500892B95
:1009200009F056C061E084E00E94DE0060E085E0EE
:100930000E94DE0061E086E00E94DE0061E087E068
:100940000E94DE0061E088E00E94DE0050E040E0AE
:1009500064E270E088E990E00E94A10245E450E082
:1009600065E270E088E990E00E94A10250E040E07A
:1009700066E270E088E990E00E94A10250E040E069
:1009800067E270E088E990E00E94A10250E040E058
:1009900068E270E088E990E00E94A10250E040E047
:1009A00069E270E088E990E00E94A10282E00E9482
:1009B000B500892B39F46AE070E080E090E00E9495
:1009C0006201F4CF62E370E080E090E00E94620197
:1009D00083E10E94B500892B09F056C061E084E0F4
:1009E0000E94DE0061E085E00E94DE0060E086E0BB
:1009F0000E94DE0061E087E00E94DE0061E088E0A6
:100A00000E94DE0050E040E064E270E088E990E09F
:100A10000E94A10250E040E065E270E088E990E0C9
:100A20000E94A10245E450E066E270E088E990E0AF
:100A30000E94A10250E040E067E270E088E990E0A7
:100A40000E94A10250E040E068E270E088E990E096
:100A50000E94A10250E040E069E270E088E990E085
:100A60000E94A10283E10E94B500892B39F46AE05B
:100A700070E080E090E00E946201F4CF62E370E0F9
:100A800080E090E00E94620183E00E94B500892B23
:100A900009F056C061E084E00E94DE0061E085E07C
:100AA0000E94DE0061E086E00E94DE0060E087E0F8
:100AB0000E94DE0061E088E00E94DE0050E040E03D
:100AC00064E270E088E990E00E94A10250E040E01A
:100AD00065E270E088E990E00E94A10250E040E009
:100AE00066E270E088E990E00E94A10245E450E0EF
:100AF00067E270E088E990E00E94A10250E040E0E7
:100B000068E270E088E990E00E94A10250E040E0D5
:100B100069E270E088E990E00E94A10283E00E940F
:100B2000B500892B39F46AE070E080E090E00E9423
:100B30006201F4CF62E370E080E090E00E94620125
:100B400089E00E94B500892B09F056C061E084E07D
:100B50000E94DE0061E085E00E94DE0061E086E048
:100B60000E94DE0061E087E00E94DE0060E088E035
:100B70000E94DE0050E040E064E270E088E990E02E
:100B80000E94A10250E040E065E270E088E990E058
:100B90000E94A10250E040E066E270E088E990E047
:100BA0000E94A10250E040E067E270E088E990E036
:100BB0000E94A10245E450E068E270E088E990E01C
:100BC0000E94A10250E040E069E270E088E990E014
:100BD0000E94A10289E00E94B500892B39F46AE0E5
:100BE00070E080E090E00E946201F4CF62E370E088
:100BF00080E090E00E9462018AE00E94B500892BAB
:100C000009F056C061E084E00E94DE0061E085E00A
:100C10000E94DE0061E086E00E94DE0061E087E085
:100C20000E94DE0061E088E00E94DE0050E040E0CB
:100C300064E270E088E990E00E94A10250E040E0A8
:100C400065E270E088E990E00E94A10250E040E097
:100C500066E270E088E990E00E94A10250E040E086
:100C600067E270E088E990E00E94A10250E040E075
:100C700068E270E088E990E00E94A10245E450E05B
:100C800069E270E088E990E00E94A1028AE00E9497
:100C9000B500892B39F46AE070E080E090E00E94B2
:100CA0006201F4CF62E370E080E090E00E946201B4
:100CB000209709F4B7CD0E94FE01882309F4B2CD34
:100CC0000E940000AFCDE2E1F1E01382128288EED3
:100CD00093E0A0E0B0E084839583A683B78384E0AB
:100CE00091E09183808385EC90E09587848784EC04
:100CF00090E09787868780EC90E0918B808B81ECE9
:100D000090E0938B828B82EC90E0958B848B86ECC9
:100D100090E0978B868B118E128E138E148E089511
:100D2000EE0FFF1F0590F491E02D0994F894FFCF8A
:100D30000000000034029401C1018102F201D001DF
:020D4000E401CC
:00000001FF
