:020000040000FA
:100000000C946B000C940E0F0C94E70E0C94930060
:100010000C9493000C9493000C9493000C94930014
:100020000C9493000C9493000C9493000C949D0EEC
:100030000C9493000C945B0F0C94350F0C9493006C
:100040000C9493000C9493000C9493000C949300E4
:100050000C9493000000390036003300300000009B
:100060003A0037003400310000003B003800350012
:100070003200020202020202020204040404040426
:10008000040403030303030303030101010101014A
:100090000101010204081020408001020408102020
:1000A0004080010204081020408001020408102052
:1000B0004080000000020000000000000000050475
:1000C0000007000000000000000000000000000029
:1000D0000000C50F5E1511241FBECFE5D8E0DEBFBE
:1000E000CDBF12E0A0E6B0E0EEEAFDE202C005906E
:1000F0000D92AE33B107D9F725E0AEE3B2E001C00F
:100100001D92AA3DB207E1F710E0CAE6D0E004C0B4
:100110002197FE010E949A15C936D107C9F70E949E
:1001200015120C94CA160C940000843059F028F46F
:10013000813099F0823089F00895853039F0873028
:1001400041F008958FB58F778FBD08958FB58F7D5E
:10015000FBCF85B58F7D85BD089583B78F7D83BF28
:1001600008953FB7F8948091650290916602A0913E
:100170006702B091680222B708B600FE05C02F3FA3
:1001800019F00196A11DB11D3FBFBA2FA92F982FBD
:100190008827BC01CD01620F711D811D911D42E0B8
:1001A000660F771F881F991F4A95D1F70895089504
:1001B000AF92BF92CF92DF92EF92FF920F931F9375
:1001C000CF93DF936C017B018B01040F151FEB01B3
:1001D0005E01AE18BF08C017D10759F06991D6016A
:1001E000ED91FC910190F081E02DC6010995892BDC
:1001F00079F7C501DF91CF911F910F91FF90EF909B
:10020000DF90CF90BF90AF900895FC01538D448D47
:10021000252F30E0842F90E0821B930B541710F0B1
:10022000CF96089501970895FC01918D828D9817BE
:1002300061F0A28DAE0FBF2FB11D5D968C91928D96
:100240009F5F9F73928F90E008958FEF9FEF0895C7
:10025000FC01918D828D981731F0828DE80FF11D90
:10026000858D90E008958FEF9FEF0895FC01918DAB
:10027000228D892F90E0805C9F4F821B91098F73A4
:100280009927089583E994E00E94360121E0892BA3
:1002900009F420E0822F089580E090E0892B29F076
:1002A0000E94420181110C9400000895FC01A48D6C
:1002B000A80FB92FB11DA35ABF4F2C91848D90E088
:1002C00001968F739927848FA689B7892C93A0896B
:1002D000B1898C9182748C93938D848D981306C010
:1002E0000288F389E02D80818F7D80830895EF92CD
:1002F000FF920F931F93CF93DF93EC0181E0888FE0
:100300009B8D8C8D981319C0E889F989808185FFB0
:1003100014C09FB7F894EE89FF896083E889F98952
:100320008081827480839FBF81E090E0DF91CF91D4
:100330001F910F91FF90EF900895F62E0B8D10E016
:100340000F5F1F4F0F731127E02E8C8D8E110CC085
:100350000FB607FCFACFE889F989808185FFF5CFD0
:10036000CE010E945601F1CFEB8DEC0FFD2FF11D58
:10037000E35AFF4FF0829FB7F8940B8FEA89FB890D
:1003800080818062CFCFCF93DF93EC01888D88236B
:10039000B9F0AA89BB89E889F9898C9185FD03C0E8
:1003A000808186FD0DC00FB607FCF7CF8C9185FFCD
:1003B000F2CF808185FFEDCFCE010E945601E9CFBB
:1003C000DF91CF910895CF93DF93FC01DC01A55716
:1003D000BF4F8C91811108C0EF01C457DF4F888156
:1003E000882309F45BC08C939C91908380E8890FEB
:1003F000EF01C657DF4F2881222301F1803740F4F7
:1004000062831882E457FF4F90831C9281E013C0EF
:10041000892F887F803F99F5903F89F16283188208
:10042000EF01C757DF4F8881882319F0E457FF4F4A
:1004300010821C9285E0DF91CF910895803748F4B7
:10044000892F807F6183813B38F1803E29F11282C0
:10045000D9CF892F887F803F81F4903FA9F4DF01B5
:10046000AA57BF4F2D913C91119720383105C0F00C
:10047000E357FF4F608384E0DECF903F81F3E45782
:10048000FF4F10821C920AC0923F29F0943FB8F7A8
:1004900061831282C5CF618381E0888380E0CBCF06
:1004A000E20FF31F66832F5F3F4F2D933C93F6CFF0
:1004B0000F931F93CF93DF93FC01EC01C557DF4FE0
:1004C0008881803F69F5673F21F0DF01A357BF4F67
:1004D0006C938F010A571F4FD8018D919C918038E2
:1004E000910548F0E357FF4F608384E0DF91CF919F
:1004F0001F910F9108959F01280F391F47EFD901D0
:1005000016964C930196D8018D939C93DF01A857C2
:10051000BF4F1C921882E457FF4F108282E0E6CF53
:10052000663F79F4608311821282DF01A757BF4FC3
:100530008C91882319F0E457FF4F1082188285E0D0
:10054000D5CF603F89F4DF01A857BF4F81E08C937E
:100550006683129781E090E08D939C93E457FF4F60
:100560001082688380E0C2CF673FE1F36883E6577B
:10057000FF4F1082F7CFDC0152968D919C91DC01E8
:10058000ED91FC910190F081E02D0994CF93DF93E0
:1005900000D000D01F92CDB7DEB729833A834B83BA
:1005A0005C836D83DC0152968D919C914B815C81C3
:1005B00069817A81DC01ED91FC910280F381E02D6B
:1005C0000F900F900F900F900F90DF91CF910994A3
:1005D000FF920F931F93CF93DF93EC01142FF52E0F
:1005E000062F8A899B89DC01ED91FC910190F081B5
:1005F000E02D642F0995143FD8F48A899B89DC018A
:10060000ED91FC910190F081E02D6F2D0995123F45
:1006100079F48A899B89DC01ED91FC910190F0814C
:10062000E02D602FDF91CF911F910F91FF900994E2
:10063000DF91CF911F910F91FF900895FF920F933B
:100640001F93CF93DF938C01C42FF52ED62FDC019F
:1006500052968D919C91DC01ED91FC910190F0817D
:10066000E02D642F0995F80182899389DC01ED91D1
:10067000FC910190F081E02D6F2D0995C07FC13B69
:1006800010F0C03E81F4F80182899389DC01ED917C
:10069000FC910190F081E02D6D2FDF91CF911F91A2
:1006A0000F91FF900994DF91CF911F910F91FF90CF
:1006B0000895EF92FF920F931F93CF93DF93EC0176
:1006C000EA88FB888C010C5E1F4FFC01EF55FF4F41
:1006D00060816F3FF1F08FEF808332978081803FA0
:1006E00031F435971182108281E03296808367FF62
:1006F0000BC0683FF8F0688F83E0DF91CF911F91C6
:100700000F91FF90EF900895C8010E94E3018111BD
:10071000F4CFD701ED91FC910284F385E02DC70160
:10072000099597FD0BC0682F87FFEECF883F10F02B
:10073000888FE2CFC8010E945802E9CF80E0DDCF68
:100740000F931F93CF93DF93EC018B018E819F81D9
:10075000009711F00E94A003E881F981008CF18DCF
:10076000E02DB801CE01DF91CF911F910F91099437
:10077000CF92DF92EF92FF92CF93DF93EC016A0169
:100780007B018E819F81009711F00E94B803E88160
:10079000F9810688F789E02DB701A601CE01DF9126
:1007A000CF91FF90EF90DF90CF9009940F931F931C
:1007B000CF93DF9300D000D01F92CDB7DEB78C016E
:1007C00029833A834B835C836D83DC0116968D917C
:1007D0009C91009711F00E94D603D801ED91FC91F5
:1007E0000488F589E02D29813A814B815C816D81F6
:1007F000C8010F900F900F900F900F90DF91CF9145
:100800001F910F910994CF92DF92EF92FF92CF93B5
:10081000DF93EC016A017B018E819F81009711F0CB
:100820000E940304E881F9810288F389E02DB70171
:10083000A601CE01DF91CF91FF90EF90DF90CF9096
:100840000994FC01A281B381109749F0ED91FC91CC
:1008500011970684F785E02DAC01CD010994089528
:10086000CF93DF93DB011496ED91FC9115973097B0
:1008700001F12481358112964D915C9113972115D8
:100880003105D1F0E9017B836A8353834283B583C9
:10089000A4831396FC93EE93129715963C932E9394
:1008A00014974115510561F0DA011596FC93EE930A
:1008B0001497DF91CF910895EC0179836883E5CF98
:1008C000EC01FB83EA83F5CFDC015696ED91FC91B8
:1008D000309711F0CB0109940895DC015496ED9105
:1008E000FC91309719F0CB01BA01099408950F9348
:1008F0001F93CF93DF93CDB7DEB72A970FB6F89447
:10090000DEBF0FBECDBF2E833F83488759876A87DE
:10091000DC015296ED91FC91309771F585E0FE0176
:100920003696DE01119601900D928A95E1F70091BD
:100930004002109141020115110531F1D801ED91EC
:10094000FC910284F385E02D29813A814B815C8101
:100950006D81C8010995882311F1B80180E492E006
:100960002A960FB6F894DEBF0FBECDBFDF91CF91B0
:100970001F910F910C9430044E815F8168857985B9
:100980008A850995882351F22A960FB6F894DEBF1E
:100990000FBECDBFDF91CF911F910F910895F80148
:1009A00002811381C8CFEF92FF920F931F93CF93D1
:1009B000DF93D42FC52F162F072FDC015096ED9112
:1009C000FC913097C1F48D2F807F803B09F04AC0A5
:1009D000C93781F5C0915002D09151022097C9F0DA
:1009E000E881F9810680F781E02DCE0109950A8022
:1009F000DB81C02DF3CF642F752F812F902F0995A8
:100A0000882309F3DF91CF911F910F91FF90EF9011
:100A10000895C0914802D0914902209799F3E88146
:100A2000F9810680F781E02DCE0109950A80DB81EE
:100A3000C02DF3CFE0905002F0905102CB3709F077
:100A400091C0C0915802D09159022097D9F2E88103
:100A5000F9810680F781E02DCE0109950A80DB81BE
:100A6000C02DF3CF813B60F5803949F0E09054020E
:100A7000F0905502803A09F455C0803819F6E0909C
:100A80005802F0905902E114F10409F4BBCFD701E8
:100A9000ED91FC910284F385E02D4D2F5C2F612FA9
:100AA000702FC70109958823B1F1B70188E592E05D
:100AB000DF91CF911F910F91FF90EF900C94300434
:100AC000803D09F470C0803E09F492C0803C09F07A
:100AD00099CFE0904C02F0904D02E114F10409F43A
:100AE00091CFD701ED91FC910284F385E02D4D2F3C
:100AF0005C2F612F702FC7010995882309F44FC01F
:100B0000B7018CE492E0DF91CF911F910F91FF909C
:100B1000EF900C943004F701E280F380B4CFF7013A
:100B2000E280F380E114F10409F46CCFD701ED9178
:100B3000FC910284F385E02D4D2F5C2F612F702FE7
:100B4000C7010995882359F3B70184E592E0DF9145
:100B5000CF911F910F91FF90EF900C943004F7010B
:100B6000E280F380E114F10409F44CCFD701ED9158
:100B7000FC910284F385E02D4D2F5C2F612F702FA7
:100B8000C7010995882359F3B70180E592E0DF9109
:100B9000CF911F910F91FF90EF900C943004F701CB
:100BA000E280F3809ACFE0904802F0904902E1148D
:100BB000F10409F427CFD701ED91FC910284F3856C
:100BC000E02D4D2F5C2F612F702FC70109958823D1
:100BD00059F0B70188E492E0DF91CF911F910F9116
:100BE000FF90EF900C943004F701E280F380DFCFA8
:100BF000E0904402F0904502E114F10409F402CFC0
:100C0000D701ED91FC910284F385E02D4D2F5C2FEF
:100C1000612F702FC7010995882359F0B70184E42B
:100C200092E0DF91CF911F910F91FF90EF900C9484
:100C30003004F701E280F380DFCFE0915C02F091B5
:100C40005D02309781F0208531858217930748F047
:100C5000228533858217930730F00280F381E02DDF
:100C6000F0CFF0E0E0E0CF010895E2E9F0E0249178
:100C7000E2E7F0E08491882399F090E0880F991FD3
:100C8000FC01E25AFF4FA591B491FC01E859FF4FD6
:100C9000859194918FB7F894EC91E22BEC938FBFF0
:100CA00081E00E94481462E370E080E090E00E94DE
:100CB000731480E00E94481462E370E080E090E0EA
:100CC0000E94731481E00E94481462E370E080E0A7
:100CD00090E00E94731480E00E94481462E573E083
:100CE00080E090E00E947314DBCFEF92FF920F93AD
:100CF0001F93CF93DF93EC018B017A018C859D8547
:100D0000009729F06817790711F00E9435061D86B3
:100D10001C868E819F81009781F02A853B852E1548
:100D20003F0559F4DC01ED91FC910684F785E02D37
:100D3000AE014C5F5F4FB801099588859985009792
:100D400059F0DC01ED91FC910684F785E02DAE01B0
:100D50004C5F5F4FB80109958A859B850097D9F054
:100D6000E816F906C1F0DC01ED91FC910680F781EF
:100D7000E02DAE01B80109956E857F85611571057D
:100D800051F08A859B85DC01ED91FC910480F58111
:100D9000E02DAE0109958A819B810097A9F09C0105
:100DA0002C5F3F4FE216F30679F0DC01ED91FC91E8
:100DB000068CF78DE02DAE01B801DF91CF911F9128
:100DC0000F91FF90EF900994DF91CF911F910F91B8
:100DD000FF90EF900895EF92FF920F931F93CF93A0
:100DE000DF93EC018B017A018C859D85009729F0BA
:100DF0006817790711F00E9435061D870C878E81D0
:100E00009F81009781F02A853B852E153F0559F477
:100E1000DC01ED91FC910484F585E02DAE014C5F81
:100E20005F4FB801099588859985009759F0DC01D5
:100E3000ED91FC910484F585E02DAE014C5F5F4F90
:100E4000B80109958A859B850097D9F0E816F906BF
:100E5000C1F06E857F856115710541F0DC01ED9172
:100E6000FC910680F781E02DAE0109958A859B856E
:100E7000DC01ED91FC910480F581E02DAE01B8011B
:100E800009958A819B810097A9F09C012C5F3F4FB7
:100E9000E216F30679F0DC01ED91FC91048CF58DFE
:100EA000E02DAE01B801DF91CF911F910F91FF901E
:100EB000EF900994DF91CF911F910F91FF90EF90E8
:100EC00008951F93CF93DF93DC011296CD91DC91AF
:100ED000209749F02C853D858E859F85211531050C
:100EE00031F4009739F4DF91CF911F9108952F3F8E
:100EF0003F4F11F1019601F11BE08C859D85009714
:100F000021F42E853F85232B71F3115061F3009757
:100F100039F0DC01ED91FC910680F781E02D099517
:100F20008E859F85009749F3DC01ED91FC91068049
:100F3000F781E02D0995E1CF0E943506CF92DF922F
:100F4000EF92FF92CF93DF93FC0122813381232B19
:100F500089F06A017B01EC010E946107B701A601DB
:100F60008A819B81DF91CF91FF90EF90DF90CF90AE
:100F70000C940304DF91CF91FF90EF90DF90CF901E
:100F80000895FC01228133812115310569F4FB01AB
:100F900022853385232B11F00E94350693878287A3
:100FA000FC01738362830895C9010496EACFFC01B2
:100FB000228133812115310569F4FB0120853185BA
:100FC000232B11F00E94350691878087FC017383E3
:100FD00062830895C901EBCFCF93DF93EC0188853D
:100FE00099850097E1F06A817B8161157105B9F0FF
:100FF000DC011296ED91FC911397309731F0118638
:10100000108613961C921E921297EA81FB813097EC
:1010100021F0118610861B821A820E94D7078A85CA
:101020009B850097E1F06E817F8161157105B9F0B4
:10103000DC011296ED91FC911397309731F01386F5
:10104000128613961C921E921297EE81FF813097A2
:1010500021F0138612861F821E820E94C107E88536
:10106000F985309751F0A281B381109731F019962C
:101070001C921E92189713821282EA85FB85309784
:1010800051F0A281B381109731F01B961C921E92F1
:101090001A97138212828A819B81892B21F48E8177
:1010A0009F81892B11F00E943506DF91CF91089521
:1010B000CF93DF93EC018A819B81009749F00496DE
:1010C0000E9458088A819B810E94EC071B821A8229
:1010D000DF91CF91089522E830E0FC013183208335
:1010E0000C945808CF93DF93EC018A819B81009781
:1010F00041F00E9472088A819B810E94EC071B824A
:101100001A82DF91CF910895CF93DF93EC018EEF98
:1011100090E09983888384E191E09D838C83CE0164
:1011200088960E942E15CE0148960E942E1581E8C1
:1011300091E09983888387E991E09D838C83CE0138
:1011400004960E946B0880E990E099838883CE0121
:10115000DF91CF910C94720804970C948408CF927D
:10116000DF92EF92FF920F931F93CF93DF938C0147
:10117000DC011696CD91DC91C115B0E8DB0701F1D9
:10118000C832D105F8F4FE01EE54FF4F8491FE0100
:10119000EE56FF4FF490CE58DF4FFE01C491CC23A2
:1011A00079F081110E949500EC2FF0E0EE0FFF1F07
:1011B000EC5AFF4FA591B491EC91FE2281E0B9F475
:1011C00080E015C0CE010E941D06009711F40E9418
:1011D0003506DC0118962D913C911997BE01621BD2
:1011E000730BED91FC910484F585E02D0995F801D0
:1011F00090859295917021E0981301C020E08FB7FF
:10120000F894409161025091620260916302709182
:1012100064028FBFD80118968C91189782FF19C06D
:1012200019968D919D910D90BC91A02D6A017B0125
:10123000C81AD90AEA0AFB0A91E0BAE1CB16D1042E
:10124000E104F10408F090E0F801808590FB82F958
:101250008087D80118968C91982F917082FF35C0A5
:10126000892F990F982B392F3370F80180858C7F47
:10127000832B808783FB332730F9231741F0846069
:1012800020FB83F980874187528763877487923078
:10129000F1F4F8015585768550FF2FC08091AD029D
:1012A0009091AE02472F4F70569567856F774069D2
:1012B00072957F700496DF91CF911F910F91FF90EF
:1012C000EF90DF90CF900C949E07822FCACF913081
:1012D000A1F4D8011D965C911D971E967C9150FF3C
:1012E0000CC08091AD029091AE02472F4F70569581
:1012F000406872957F706FE7DDCFDF91CF911F91CE
:101300000F91FF90EF90DF90CF900895CF93DF93F0
:10131000DC011696CD91DC91C115B0E8DB0731F107
:10132000C832D10530F5FE01EE56FF4F8491CE58FC
:10133000DF4FFE01C491CC23C9F0D0E0CC0FDD1FFC
:10134000FE01E25AFF4F25913491FE01E859FF4F0B
:10135000A591B4914FB7F894F9015081982F9095C9
:1013600095239083EC91E82BEC934FBFDF91CF91C5
:101370000895CE010E941D06009711F40E943506C3
:10138000DC0118962D913C911997BE01621B730BDD
:10139000ED91FC910480F581E02D42E0DF91CF9149
:1013A0000994049608950296089505960895029664
:1013B000089503960895029608950895089508954E
:1013C000CF93DF93AC01FB01C481D581209721F03D
:1013D000828193819B838A83DA0112968D919C91FD
:1013E00013978E179F0721F41396DC93CE931297D1
:1013F00082819381009729F0DC011596DC93CE93CE
:101400001497DA012D913C9111972E173F0711F493
:101410008D939C931582148213821282DF91CF9157
:1014200008958F929F92AF92BF92EF92FF920F9387
:101430001F93CF93DF93CDB7DEB764970FB6F894C1
:10144000DEBF0FBECDBF7C01633009F4BBC0B0F47A
:101450006130D1F1623009F463C064960FB6F8943C
:10146000DEBF0FBECDBFDF91CF911F910F91FF90D7
:10147000EF90BF90AF909F908F900895643009F4E3
:101480004FC0653051F7FC0184889588A688B788DD
:1014900086819781892B61F0C70104960E946107BC
:1014A000B501A401D70116968D919C910E94B803B5
:1014B000F70180899189009781F2DC01ED91FC911F
:1014C0000480F581E02D18C0DC0154968D909D902C
:1014D000AD90BC905797B501A40104960E949E0759
:1014E000F70180899189009709F4B7CFDC01ED916C
:1014F000FC910190F081E02DA5019401B701649663
:101500000FB6F894DEBF0FBECDBFDF91CF911F9114
:101510000F91FF90EF90BF90AF909F908F900994A4
:10152000F701E656FF4F808191819701265E3F4F7C
:101530003F832E83998788878A85807F8A8785E085
:10154000FE013696DE01509601900D928A95E1F7E4
:1015500085E0FE017096DE011B9601900D928A9542
:10156000E1F785E0FE013B96DE01119601900D92B8
:101570008A95E1F7F70186819781892B79F0C70178
:1015800004960E94610729813A814B815C816D81BB
:10159000D70116968D919C910E94D603F701808900
:1015A0009189009709F459CFDC01ED91FC910280FB
:1015B000F381E02D0B851C852D853E854F85B70178
:1015C00009954BCFFC01008D118D86819781009785
:1015D00019F0B8010E94A003D70150968D919C91FB
:1015E000009709F43ACFDC01ED91FC910680F78178
:1015F000E02DA801B70164960FB6F894DEBF0FBEC8
:10160000CDBFDF91CF911F910F91FF90EF90BF90D1
:10161000AF909F908F9009948F929F92AF92BF92BC
:10162000CF92DF92EF92FF920F931F93CF93DF93AE
:10163000EC010E945903F82E882309F470C05E0162
:1016400084E0A80EB11CEE81FF813097D1F00485B3
:1016500015850115110509F05CC0068517852097D1
:10166000A1F4D12CC12C15C0B2E0FB1207C0F401CB
:1016700080819181081B190BE12C28C003501109AE
:1016800025C010E000E0209739F06E01AEE0CA0EF0
:10169000D11CC016D10629F4B801C5010E9421044D
:1016A0006801E12C00E811E04E01BAE98B0E911CB3
:1016B0006F2DCE010E94110AE4E0FE12D5CFD401B5
:1016C0008D919C91081B190BEE24E39417FD06C025
:1016D000CE010E945903F82E8111EACFEE20F9F0D5
:1016E0008E819F810097D9F0DC01ED91FC910484FB
:1016F000F585E02DA501B601DF91CF911F910F91E6
:10170000FF90EF90DF90CF90BF90AF909F908F9021
:101710000994D12CC12C209709F0B7CFC2CFDF910B
:10172000CF911F910F91FF90EF90DF90CF90BF90DE
:10173000AF909F908F900895CF92DF92EF92FF929B
:10174000CF93DF93FC01C289D3898E559F4FFC0153
:10175000C080D180E280F380E889F98982E08083CB
:10176000C114F1EEDF06E104F104A1F060E079E0DC
:101770008DE390E0A70196010E9478152150310970
:10178000410951095695479537952795211580E1CF
:10179000380798F0E889F989108260E874E88EE1EA
:1017A00090E0A70196010E94781521503109410966
:1017B00051095695479537952795EC85FD853083DA
:1017C000EE85FF852083188EEC89FD8986E880836D
:1017D000EA89FB89808188698083EA89FB89808125
:1017E0008F7D8083DF91CF91FF90EF90DF90CF903E
:1017F000089508970C949C0BCF92DF92EF92FF9282
:101800001F93CF93DF93EC017C0124E0E20EF11CE7
:10181000EE81FF81309791F084859585009721F4C2
:1018200086859785009751F08F3F980739F0DC0146
:10183000ED91FC910480F581E02D0995BE01625F78
:101840007F4F209711F470E060E0C7010E942104EF
:101850008FB7F894C0906102D0906202E09063026A
:10186000F09064028FBF2FB7F8948091610290913D
:101870006202A0916302B09164022FBF8C199D098E
:10188000AE09BF09843F9140A105B10560F4CE01C6
:101890000E945903182F682FCE010E94110A14309C
:1018A000B9F2123001F7DF91CF911F91FF90EF90C5
:1018B000DF90CF900895FC0183E291E091838083D3
:1018C0003097A1F08091AF029091B002E817F9072C
:1018D00041F082819381892B21F484819581892B28
:1018E00029F0BF018FEA92E00C94E0090895FC0111
:1018F00086EA90E0918380833097A1F0809169021D
:1019000090916A02E817F90741F082819381892B4F
:1019100021F484819581892B29F0BF0189E692E029
:101920000C94E0090895CF93DF93EC0187E391E0F5
:10193000998388838BE591E09D838C8389E691E090
:101940009987888785E791E09F878E8780913E02FF
:1019500090913F02009749F42091B1023091B20278
:101960002115310511F0C9010897C817D90721F4CD
:1019700010923F0210923E028BE291E09987888795
:10198000CE0108960E945B0C81E891E099838883E0
:1019900087E991E09D838C83CE0104960E946B08B9
:1019A00080E990E099838883CE01DF91CF910C94F8
:1019B000720825EA31E0FC01318320832BEC31E011
:1019C0003583248329ED31E03187208725EE31E00E
:1019D000378726870C94930C08970C94D90C04979E
:1019E0000C94D90C0E970C94D90C21EF31E0FC012A
:1019F0003183208327E132E03583248325E232E0FE
:101A00003187208721E332E0378726870C94D90C71
:101A100004970C94F50C08970C94F50C0E970C9405
:101A2000F50C04970C94930C08970C94930C0E9758
:101A30000C94930C0E970C94FC0B0C94FC0B0895D7
:101A40002BE231E0FC01318320830C94770C2EEAE9
:101A500030E0FC01318320830C94200D683F38F086
:101A6000DC01ED91FC91048CF58DE02D0994089535
:101A7000242F287F203F59F4403F49F06F77DC0145
:101A8000ED91FC91008CF18DE02D5F770994089524
:101A9000CF93DF93CDB7DEB72A970FB6F894DEBFAA
:101AA0000FBECDBF2E833F83488759876A8725E0C5
:101AB000FE013696DE01119601900D922A95E1F70E
:101AC00028853985232BA1F0DC01ED91FC91028C56
:101AD000F38DE02D29813A814B815C816D812A96BD
:101AE0000FB6F894DEBF0FBECDBFDF91CF91099442
:101AF0002A960FB6F894DEBF0FBECDBFDF91CF910F
:101B0000089520E8240F203748F46F77DC01ED9129
:101B1000FC910688F789E02D5F7709940895089570
:101B200089E392E00895DC0118968D919C910097CD
:101B300039F0DC01ED91FC910284F385E02D0994EC
:101B40000895DC0118968D919C91009739F0DC0185
:101B5000ED91FC910084F185E02D09940895CF93D7
:101B6000DF93CDB7DEB72A970FB6F894DEBF0FBE6E
:101B7000CDBF2E833F83488759876A8725E0FE01C2
:101B80003696DE01119601900D922A95E1F7DC015F
:101B900018968D919C910097A1F0DC01ED91FC913C
:101BA0000680F781E02D29813A814B815C816D812E
:101BB0002A960FB6F894DEBF0FBECDBFDF91CF914E
:101BC00009942A960FB6F894DEBF0FBECDBFDF9101
:101BD000CF910895DC0118968D919C91009739F072
:101BE000DC01ED91FC910480F581E02D09940895CC
:101BF000DC011A968D919C91009739F0DC01ED91F2
:101C0000FC910084F185E02D099490E080E0089536
:101C100004970C94F80DDC0118968D919C91009717
:101C200039F0DC01ED91FC910088F189E02D0994F7
:101C300090E080E00895089508950E94C516CF931E
:101C4000DF93EC010E946B08CE01DF91CF910C94E1
:101C50003C16CF93DF93EC010E948408CE01DF9104
:101C6000CF910C943C1604970C94290ECF93DF93DC
:101C7000EC010E94270DCE01DF91CF910C943C1610
:101C80000C943C160C943C160C943C16CF93DF93AA
:101C9000EC010E94F50CCE01DF91CF910C943C1623
:101CA00004970C94460E08970C94460E0E970C94CD
:101CB000460ECF93DF93EC010E945B0CCE01DF91C7
:101CC000CF910C943C16CF93DF93EC010E94770CDC
:101CD000CE01DF91CF910C943C16CF93DF93EC01B2
:101CE0000E94D90CCE01DF91CF910C943C160E9737
:101CF0000C946D0E08970C946D0E04970C946D0E59
:101D0000CF93DF93EC010E94930CCE01DF91CF9132
:101D10000C943C160E970C94800E08970C94800E31
:101D200004970C94800ECF93DF93EC010E94200D5A
:101D3000CE01DF91CF910C943C161F920F920FB6FB
:101D40000F9211242F933F938F939F93AF93BF9341
:101D50008091610290916202A0916302B09164024D
:101D60003091600223E0230F2D3768F126E8230F1E
:101D70000296A11DB11D2093600280936102909391
:101D80006202A0936302B093640280916502909115
:101D90006602A0916702B09168020196A11DB11D73
:101DA0008093650290936602A0936702B0936802E5
:101DB000BF91AF919F918F913F912F910F900FBE47
:101DC0000F901F9018950196A11DB11DD4CF1F92A1
:101DD0000F920FB60F9211242F933F934F935F935F
:101DE0006F937F938F939F93AF93BF93EF93FF93E3
:101DF000E0916200F09163000995FF91EF91BF912E
:101E0000AF919F918F917F916F915F914F913F9192
:101E10002F910F900FBE0F901F9018951F920F9249
:101E20000FB60F9211242F933F934F935F936F93AD
:101E30007F938F939F93AF93BF93EF93FF93E09123
:101E40006000F09161000995FF91EF91BF91AF9112
:101E50009F918F917F916F915F914F913F912F91C2
:101E60000F900FBE0F901F9018951F920F920FB6F4
:101E70000F9211242F933F934F935F936F937F9310
:101E80008F939F93AF93BF93EF93FF9383E994E076
:101E90000E945601FF91EF91BF91AF919F918F9159
:101EA0007F916F915F914F913F912F910F900FBE56
:101EB0000F901F9018951F920F920FB60F9211243A
:101EC0002F938F939F93EF93FF93E091A304F0914F
:101ED000A4048081E091A904F091AA0482FD1BC0B2
:101EE00090818091AC048F5F8F732091AD04821735
:101EF00041F0E091AC04F0E0ED56FB4F958F8093FC
:101F0000AC04FF91EF919F918F912F910F900FBE95
:101F10000F901F9018958081F4CFFC0113821282DC
:101F20001582148286EA90E0918380838091690211
:101F300090916A02892B21F4F0936A02E09369027E
:101F4000A0916B02B0916C02B583A483109721F02D
:101F50001396FC93EE931297F0936C02E0936B024E
:101F6000138212827783668380858F608F7E80875D
:101F70001186128613861486568745878FE78787D2
:101F80008EEA90E09183808308950F931F931092BF
:101F900096041092950488EE93E0A0E0B0E0809360
:101FA000970490939804A0939904B0939A048AEBB1
:101FB00090E0909394048093930480E490E0909355
:101FC000A00480939F0429E230E03093A204209380
:101FD000A1042BE230E03093A4042093A3042AE26E
:101FE00030E03093A6042093A5049093A804809336
:101FF000A7048CE290E09093AA048093A904109225
:10200000AC041092AD041092AE041092AF04809113
:10201000A502811195C01092700210926F02109269
:102020007402109273028EEF90E090936E02809390
:102030006D0284E191E090937202809371028AE1D3
:1020400091E4A0E0B0E08093750290937602A093B3
:102050007702B09378021092790210927A0210926D
:102060007B0210927C020E94B100009175021091D7
:1020700076022091770230917802601B710B820BFF
:10208000930B6093790270937A0280937B02909312
:102090007C0210927E0210927D02109280021092B9
:1020A0007F0210928202109281021092840210929A
:1020B0008302109288021092870210928C02109272
:1020C0008B022CEC30E0309386022093850280EF67
:1020D00090E090938A028093890210928E0210926F
:1020E0008D021092900210928F0210929202109222
:1020F0009102109294021092930210929802109200
:10210000970210929C0210929B02309396022093A9
:10211000950290939A028093990210929E021092D7
:102120009D021092A00210929F021092A2021092A1
:10213000A1021092A4021092A30281E08093A50252
:102140008DE692E09093AE028093AD02109233053B
:102150001092320510923705109236058091AF0229
:102160009091B002892B31F488E395E09093B0020E
:102170008093AF02E091B102F091B202F0933D057D
:10218000E0933C05309721F088E395E093838283C8
:1021900088E395E09093B2028093B10210923B05E0
:1021A00010923A05109241051092400583E994E09F
:1021B000909343058093420580911E01109244053F
:1021C00010924505109246058093470510924805E8
:1021D00080914905807F809349051092CB0510922C
:1021E000CA051092CC0581E08093CD051092CE05F2
:1021F0001092CF051092D0058FEF8093D10582E128
:102200009AE7A0E0B0E08093D2059093D305A09325
:10221000D405B093D50581EF91E09093310580937B
:10222000300587E192E0909335058093340585E28F
:1022300092E0909339058093380581E392E0909382
:102240003F0580933E0549E450E068E170E083EB90
:1022500092E00E948D0F4BE450E069E170E083EC66
:1022600092E00E948D0F4DE450E06AE170E083ED52
:1022700092E00E948D0F4FE450E06BE170E083EE3E
:1022800092E00E948D0F41E550E06CE170E083EF39
:1022900092E00E948D0F43E550E06DE170E083E035
:1022A00093E00E948D0F45E550E06EE170E083E120
:1022B00093E00E948D0F47E550E06FE170E083E20C
:1022C00093E00E948D0F49E550E070E060E083E309
:1022D00093E00E948D0F4BE550E061E070E083E4F5
:1022E00093E00E948D0F4DE550E062E070E083E5E1
:1022F00093E00E948D0F4FE550E063E070E083E6CD
:1023000093E00E948D0F41E650E064E070E083E7C7
:1023100093E00E948D0F43E650E065E070E083E8B3
:1023200093E00E948D0F45E650E066E070E083E99F
:1023300093E00E948D0F47E650E067E070E083EA8B
:1023400093E00E948D0F49E650E060E170E083EB7E
:1023500093E00E948D0F4BE650E061E170E083EC6A
:1023600093E00E948D0F4DE650E062E170E083ED56
:1023700093E00E948D0F4FE650E063E170E083EE42
:1023800093E00E948D0F41E750E064E170E083EF3D
:1023900093E00E948D0F43E750E065E170E083E039
:1023A00094E00E948D0F45E750E066E170E083E124
:1023B00094E00E948D0F47E750E067E170E083E210
:1023C00094E00E948D0F49E750E06AE070E083E3FB
:1023D00094E00E948D0F4BE750E06BE070E083E4E7
:1023E00094E00E948D0F4DE750E06FE070E083E5D0
:1023F00094E00E948D0F4FE750E06CE070E083E6C0
:1024000094E00E948D0F41E850E06DE070E083E7BA
:1024100094E00E948D0F43E850E06EE070E083E8A6
:1024200094E01F910F910C948D0F789483B7836083
:1024300083BF83B7886483BF89B7816089BF82E027
:102440008EBD8EB581608EBD8FB581608FBD85B527
:10245000846085BD85B5806485BD87E886B91AB876
:10246000C091AD02D091AE028E819F81892B89F5FA
:102470008A819B81892B69F500913E0210913F0270
:102480000115110561F40091B1021091B20201151C
:10249000110519F00850110911F40E9435067E014A
:1024A00088E1E80EF11CB701CE010E94D707B70101
:1024B000C80104960E94C1077E01A8E2EA0EF11C41
:1024C000B701CE0104960E94C107B701C8010E945E
:1024D000D70700915C0210915D020115110561F0B2
:1024E000D801ED91FC91008CF18DE02DC80109958A
:1024F000F80102811381F1CF0091AF021091B00277
:102500000115110561F0D801ED91FC910480F58170
:10251000E02DC8010995F80102811381F1CF0091E6
:102520005802109159020115110561F0D801ED9181
:10253000FC910480F581E02DC8010995F801028124
:102540001381F1CF0091540210915502011511052C
:1025500061F0D801ED91FC910480F581E02DC80176
:102560000995F80102811381F1CF00915002109179
:1025700051020115110561F0D801ED91FC91048023
:10258000F581E02DC8010995F80102811381F1CF91
:1025900000914C0210914D020115110561F0D80116
:1025A000ED91FC910480F581E02DC8010995F801B9
:1025B00002811381F1CF0091480210914902011567
:1025C000110561F0D801ED91FC910480F581E02DB9
:1025D000C8010995F80102811381F1CF00914402ED
:1025E000109145020115110561F0D801ED91FC91A2
:1025F0000480F581E02DC8010995F801028113815D
:10260000F1CF00914002109141020115110561F0D6
:10261000D801ED91FC910480F581E02DC801099568
:10262000F80102811381F1CF0091690210916A02D1
:102630000115110561F0D801ED91FC910480F5813F
:10264000E02DC8010995F80102811381F1CF0E94A4
:10265000B100088519852A853B85601B710B820BAB
:10266000930B6C877D878E879F87809176009091F2
:102670007700892B09F011CF81E090E090937700EB
:102680008093760066E670E084E395E00E94C107DF
:1026900066E670E080E395E00E94D70780E395E06E
:1026A0000E949C0B00E010E0E090AD02F090AE02C2
:1026B000C0915C02D0915D02209759F0E881F981C8
:1026C000048CF58DE02DCE0109950A80DB81C02DAB
:1026D000F3CFC0916902D0916A02209759F0E88146
:1026E000F9810680F781E02DCE0109950A80DB8112
:1026F000C02DF3CFC091AF02D091B002209759F016
:10270000E881F9810680F781E02DCE0109950A80E4
:10271000DB81C02DF3CFC0915802D0915902209790
:1027200059F0E881F9810084F185E02DCE01099509
:102730000A80DB81C02DF3CFC0915402D0915502A5
:10274000209759F0E881F9810084F185E02DCE01D0
:1027500009950A80DB81C02DF3CFC0915002D09142
:102760005102209759F0E881F9810084F185E02D2C
:10277000CE0109950A80DB81C02DF3CFC0914C02B8
:10278000D0914D02209759F0E881F9810084F185BC
:10279000E02DCE0109950A80DB81C02DF3CFC091D9
:1027A0004802D0914902209759F0E881F9810084CC
:1027B000F185E02DCE0109950A80DB81C02DF3CF94
:1027C000C0914402D0914502209759F0E881F981E7
:1027D0000084F185E02DCE0109950A80DB81C02DB2
:1027E000F3CFC0914002D0914102209759F0E88187
:1027F000F9810084F185E02DCE0109950A80DB8105
:10280000C02DF3CF0E94B100D7011C964D905D9072
:102810006D907C901F9718968D909D90AD90BC9078
:102820001B97AB01BC014419550966097709481586
:1028300059056A057B0558F0D301C201880D991D21
:10284000AA1DBB1DF70184879587A687B787C0910E
:102850005C02D0915D02209759F0E881F981028CE9
:10286000F38DE02DCE0109950A80DB81C02DF3CFD9
:1028700080E395E00E940C0B0115110509F414CFBB
:102880000E944201882309F40FCF0E9400000CCF60
:102890001F93CF93DF93E2EBF0E09491E2E9F0E055
:1028A000D491E2E7F0E0C491CC23B9F0182F99233A
:1028B00019F0892F0E949500EC2FF0E0EE0FFF1F1A
:1028C000E859FF4FA591B4918FB7F894EC9111118D
:1028D00008C0D095DE23DC938FBFDF91CF911F918D
:1028E0000895DE2BF8CF8F929F92AF92BF92CF9236
:1028F000DF92EF92FF924B015C010E94B1006B01ED
:102900007C010E94B1006C197D098E099F09683E07
:10291000734081059105A8F321E0821A9108A1086E
:10292000B10888EEC80E83E0D81EE11CF11C8114AA
:102930009104A104B10429F7FF90EF90DF90CF90AC
:10294000BF90AF909F908F9008950F931F93CF9358
:10295000DF93EC018B018885998584179507F9F43D
:102960001D861C868A859B85009741F0DC01ED91D0
:10297000FC910680F781E02DAE0109958A819B814B
:10298000009701F1DC01ED91FC91068CF78DE02DB3
:10299000AE01B801DF91CF911F910F9109946E851F
:1029A0007F856017710771F41F861E868A859B8557
:1029B000009741F0DC01ED91FC910680F781E02D5C
:1029C000AE01E8CFDF91CF911F910F910895049749
:1029D0000C94A5140F931F93CF93DF93EC0188857C
:1029E00099858417950701F58B017D876C878A850A
:1029F0009B85009741F0DC01ED91FC910480F5810D
:102A0000E02DAE0109958A819B810097F9F0DC01E8
:102A1000ED91FC91048CF58DE02DAE01B801DF91B4
:102A2000CF911F910F9109948E859F85892B71F409
:102A30007F876E878A859B85009741F0DC01ED9149
:102A4000FC910480F581E02DAE01E9CFDF91CF91BB
:102A50001F910F91089504970C94EA14CF93DF937C
:102A6000EC018CEC90E09983888380EF90E09D836B
:102A70008C83CE010E94EC07CE0104960E946B0865
:102A800080E990E099838883CE01DF91CF910C9407
:102A9000720804970C942E150C940C0B08970C9448
:102AA0000C0BCF93DF93EC010E942E15CE01DF912A
:102AB000CF910C943C1604970C945115CF93DF934F
:102AC000C3E9D4E06097E881F9810190F081E02DBD
:102AD000CE01099582E0C33BD807A1F786E690E0D6
:102AE0000E942E1580E395E0DF91CF910C94F50CB8
:102AF000A1E21A2EAA1BBB1BFD010DC0AA1FBB1F02
:102B0000EE1FFF1FA217B307E407F50720F0A21B73
:102B1000B30BE40BF50B661F771F881F991F1A94E0
:102B200069F760957095809590959B01AC01BD010A
:102B3000CF010895EE0FFF1F0590F491E02D099449
:102B40000F931F93CF93DF938230910510F482E0AF
:102B500090E0E091D805F091D90530E020E0B0E0B8
:102B6000A0E0309799F42115310509F44AC0281BDB
:102B7000390B24303105D8F58A819B8161157105A7
:102B800089F1FB0193838283FE0111C04081518151
:102B90000281138148175907E0F04817590799F443
:102BA000109761F012960C93129713961C9332961D
:102BB000CF01DF91CF911F910F9108950093D80518
:102BC0001093D905F4CF2115310551F04217530761
:102BD00038F0A901DB019A01BD01DF01F801C1CF85
:102BE000EF01F9CF9093D9058093D805CDCFFE01A1
:102BF000E20FF31F81939193225031093983288387
:102C0000D7CF2091D6053091D705232B41F42091C1
:102C10007A0030917B003093D7052093D605209120
:102C20007800309179002115310541F42DB73EB778
:102C300040917C0050917D00241B350BE091D6051E
:102C4000F091D705E217F307A0F42E1B3F0B2817CE
:102C5000390778F0AC014E5F5F4F2417350748F015
:102C60004E0F5F1F5093D7054093D60581939193E4
:102C70009FCFF0E0E0E09CCFCF93DF930097E9F0A7
:102C8000FC01329713821282A091D805B091D90528
:102C9000ED0130E020E01097A1F420813181820F16
:102CA000931F2091D6053091D7052817390709F0D1
:102CB00061C0F093D705E093D605DF91CF910895D9
:102CC000EA01CE17DF07E8F54A815B819E014115D5
:102CD0005105B1F7E901FB83EA8349915991C40F8A
:102CE000D51FEC17FD0761F4808191810296840F56
:102CF000951FE90199838883828193819B838A83CD
:102D0000F0E0E0E012968D919C9113970097B9F551
:102D10002D913C911197CD010296820F931F209126
:102D2000D6053091D7052817390739F6309751F570
:102D30001092D9051092D805B093D705A093D60567
:102D4000BCCFD383C28340815181840F951FC817A4
:102D5000D90761F44E5F5F4F88819981480F591FF1
:102D6000518340838A819B8193838283211531051E
:102D700009F0B0CFF093D905E093D8059ECFFD01BF
:102D8000DC01C0CF13821282D7CF81E090E0F894AB
:102D90000C94CA1610E0CAE6D0E004C0FE010E94FE
:102DA0009A152196CB36D107C9F7F894FFCFD700F3
:102DB00000000000CC000000F00000000000000057
:102DC0000000000000000000DA05800000000000A4
:102DD0006B081F0E1C0E1C0E1B0E000000000000D6
:102DE00000001D0E1D0E1D0E1D0E1C0E1C0E1B0EBA
:102DF00000000000770C630E00000000270D360E67
:102E00008609AF08000000007701D8000501C30162
:102E1000360114012801000000002E155115EA0D9D
:102E2000AF0DA10D930DEB0675060B0EEA0DAF0D60
:102E3000A10D930DF80DEA14A514FCFF000049152F
:102E40005B152B15E714080E000000008408290EFE
:102E5000D30477046D0464041C0E1C0E1B0EFCFFCF
:102E60000000AC08330E1C0E1C0E1B0E00000000F0
:102E7000005B0C590E00000000000000001D0E1D3C
:102E80000E0000000000000000810D480D380D2EDE
:102E90000D1C0E1C0E1B0E1F0D1D0E1D0E1D0E1DDE
:102EA0000E1D0E1D0EFCFF0000000000001C0E1C7D
:102EB0000E1B0EF8FF0000000000008F0D1D0EF22B
:102EC000FF000000000000900D1D0E00000000003B
:102ED0000000001D0E1D0E1D0E1D0E1C0E1C0E1BD7
:102EE0000EFCFF0000000000001C0E1C0E1B0E005C
:102EF000000000D90C6D0E810D480D380D2E0D1CF3
:102F00000E1C0E1B0E9C0B4C151E03E802C602BBCA
:102F1000021F0D1D0DFCFF0000EF0C7D0E1C0E1C92
:102F20000E1B0EF8FF0000EC0C7A0EF90B4E15F29A
:102F3000FF0000F20C770E900D1A0D00000000F556
:102F40000C460E810D480D380D2E0D1C0E1C0E1B4F
:102F50000E9C0B4C151E03E802C602BB021F0D1D82
:102F60000DFCFF0000080D500E1C0E1C0E1B0EF871
:102F7000FF00000B0D530EF90B4E15F2FF00000E73
:0C2F80000D560E900D1A0D3C3F3E000057
:107E800011248FE598E09EBF8DBF24B614BE80E01C
:107E90007AD021FEDDC08EE076D0AFE7BFEF8099CB
:107EA000FECF9096809BFDCFB9B91197F1F782E094
:107EB0008BB988E18AB957D0C82F823559F467D079
:107EC000E0E8FEE7E058F109A89583E085D0309717
:107ED000C9F742C08D7F09F551D0D82F182F80E601
:107EE000E82EF12C40D0D7018D937D011150D1F7B0
:107EF0004ED0C1110EC0A0E6B0E0E199FECFFFBBAD
:107F0000EEBB8D918DBBE29AE19A3196D150A9F7E3
:107F100023C0A0E6B0E045D01FC0C33041F42ED04E
:107F2000C82F35D085911BD0C150E1F715C0C130A5
:107F300071F424D0C82F2BD0E199FECFFFBBEEBB4C
:107F4000E09A8DB30CD03196C150B1F705C0C13560
:107F500011F488E018D01BD08AE301D0ACCF5D9B30
:107F6000FECF8CB90895C09AB89A8BB187FFFDCF28
:107F700084FD10C0A8958CB1C0980895F4DFE82F57
:107F8000F2DFF82FF0CF98E191BD81BD0895EBDFCE
:107F9000803219F088E0F7DFFFCF80EAE0CFFB0105
:107FA000DC0160E86A0F9F01E0388EE7F807C8F44B
:107FB00083E012D0309629F48FE38D938FEC8C936D
:107FC000119781E00D901D9007D03296A613FACF3D
:107FD000F90185E001D081E187BFE89507B600FC93
:067FE000FDCF11240895FD
:067FFA000314D0CFE73FA5
:00000001FF
